{"project/contracts/PartOwnPool.sol":{"PartOwnPool":{"abi":[{"inputs":[{"internalType":"address","name":"_creator","type":"address"},{"internalType":"string","name":"_name","type":"string"},{"internalType":"string","name":"_symbol","type":"string"},{"internalType":"string","name":"_metadataCID","type":"string"},{"internalType":"uint256","name":"_totalShares","type":"uint256"},{"internalType":"uint256","name":"_sharePrice","type":"uint256"},{"internalType":"address","name":"_usdc","type":"address"},{"internalType":"uint256","name":"_maintenancePct","type":"uint256"}],"stateMutability":"nonpayable","type":"constructor"},{"inputs":[{"internalType":"address","name":"spender","type":"address"},{"internalType":"uint256","name":"allowance","type":"uint256"},{"internalType":"uint256","name":"needed","type":"uint256"}],"name":"ERC20InsufficientAllowance","type":"error"},{"inputs":[{"internalType":"address","name":"sender","type":"address"},{"internalType":"uint256","name":"balance","type":"uint256"},{"internalType":"uint256","name":"needed","type":"uint256"}],"name":"ERC20InsufficientBalance","type":"error"},{"inputs":[{"internalType":"address","name":"approver","type":"address"}],"name":"ERC20InvalidApprover","type":"error"},{"inputs":[{"internalType":"address","name":"receiver","type":"address"}],"name":"ERC20InvalidReceiver","type":"error"},{"inputs":[{"internalType":"address","name":"sender","type":"address"}],"name":"ERC20InvalidSender","type":"error"},{"inputs":[{"internalType":"address","name":"spender","type":"address"}],"name":"ERC20InvalidSpender","type":"error"},{"inputs":[{"internalType":"address","name":"owner","type":"address"}],"name":"OwnableInvalidOwner","type":"error"},{"inputs":[{"internalType":"address","name":"account","type":"address"}],"name":"OwnableUnauthorizedAccount","type":"error"},{"inputs":[],"name":"ReentrancyGuardReentrantCall","type":"error"},{"anonymous":false,"inputs":[{"indexed":true,"internalType":"address","name":"owner","type":"address"},{"indexed":true,"internalType":"address","name":"spender","type":"address"},{"indexed":false,"internalType":"uint256","name":"value","type":"uint256"}],"name":"Approval","type":"event"},{"anonymous":false,"inputs":[{"indexed":true,"internalType":"bytes32","name":"bookingId","type":"bytes32"},{"indexed":true,"internalType":"address","name":"user","type":"address"},{"indexed":false,"internalType":"uint256","name":"start","type":"uint256"},{"indexed":false,"internalType":"uint256","name":"end","type":"uint256"}],"name":"BookingCreated","type":"event"},{"anonymous":false,"inputs":[{"indexed":true,"internalType":"bytes32","name":"bookingId","type":"bytes32"},{"indexed":false,"internalType":"string","name":"preUseCID","type":"string"}],"name":"CheckIn","type":"event"},{"anonymous":false,"inputs":[{"indexed":true,"internalType":"bytes32","name":"bookingId","type":"bytes32"},{"indexed":false,"internalType":"string","name":"postUseCID","type":"string"}],"name":"CheckOut","type":"event"},{"anonymous":false,"inputs":[{"indexed":true,"internalType":"bytes32","name":"bookingId","type":"bytes32"},{"indexed":true,"internalType":"address","name":"reporter","type":"address"},{"indexed":false,"internalType":"string","name":"damageCID","type":"string"}],"name":"DamageReported","type":"event"},{"anonymous":false,"inputs":[{"indexed":true,"internalType":"bytes32","name":"bookingId","type":"bytes32"},{"indexed":false,"internalType":"uint256","name":"amount","type":"uint256"}],"name":"DepositLocked","type":"event"},{"anonymous":false,"inputs":[{"indexed":true,"internalType":"address","name":"previousOwner","type":"address"},{"indexed":true,"internalType":"address","name":"newOwner","type":"address"}],"name":"OwnershipTransferred","type":"event"},{"anonymous":false,"inputs":[{"indexed":true,"internalType":"address","name":"user","type":"address"},{"indexed":false,"internalType":"uint256","name":"amount","type":"uint256"}],"name":"PayoutClaimed","type":"event"},{"anonymous":false,"inputs":[{"indexed":false,"internalType":"uint256","name":"amount","type":"uint256"},{"indexed":false,"internalType":"uint256","name":"timestamp","type":"uint256"}],"name":"PayoutDistributed","type":"event"},{"anonymous":false,"inputs":[{"indexed":true,"internalType":"uint256","name":"proposalId","type":"uint256"},{"indexed":false,"internalType":"string","name":"description","type":"string"}],"name":"ProposalCreated","type":"event"},{"anonymous":false,"inputs":[{"indexed":true,"internalType":"uint256","name":"proposalId","type":"uint256"}],"name":"ProposalExecuted","type":"event"},{"anonymous":false,"inputs":[{"indexed":true,"internalType":"address","name":"buyer","type":"address"},{"indexed":false,"internalType":"uint256","name":"shares","type":"uint256"},{"indexed":false,"internalType":"uint256","name":"cost","type":"uint256"}],"name":"SharesPurchased","type":"event"},{"anonymous":false,"inputs":[{"indexed":true,"internalType":"address","name":"from","type":"address"},{"indexed":true,"internalType":"address","name":"to","type":"address"},{"indexed":false,"internalType":"uint256","name":"value","type":"uint256"}],"name":"Transfer","type":"event"},{"anonymous":false,"inputs":[{"indexed":true,"internalType":"uint256","name":"proposalId","type":"uint256"},{"indexed":true,"internalType":"address","name":"voter","type":"address"},{"indexed":false,"internalType":"bool","name":"support","type":"bool"},{"indexed":false,"internalType":"uint256","name":"weight","type":"uint256"}],"name":"Voted","type":"event"},{"inputs":[{"internalType":"address","name":"owner","type":"address"},{"internalType":"address","name":"spender","type":"address"}],"name":"allowance","outputs":[{"internalType":"uint256","name":"","type":"uint256"}],"stateMutability":"view","type":"function"},{"inputs":[{"internalType":"address","name":"spender","type":"address"},{"internalType":"uint256","name":"value","type":"uint256"}],"name":"approve","outputs":[{"internalType":"bool","name":"","type":"bool"}],"stateMutability":"nonpayable","type":"function"},{"inputs":[{"internalType":"address","name":"account","type":"address"}],"name":"balanceOf","outputs":[{"internalType":"uint256","name":"","type":"uint256"}],"stateMutability":"view","type":"function"},{"inputs":[{"internalType":"bytes32","name":"","type":"bytes32"}],"name":"bookings","outputs":[{"internalType":"address","name":"user","type":"address"},{"internalType":"uint256","name":"start","type":"uint256"},{"internalType":"uint256","name":"end","type":"uint256"},{"internalType":"uint256","name":"deposit","type":"uint256"},{"internalType":"bool","name":"active","type":"bool"},{"internalType":"bool","name":"completed","type":"bool"},{"internalType":"string","name":"preUseCID","type":"string"},{"internalType":"string","name":"postUseCID","type":"string"},{"internalType":"string","name":"damageReportCID","type":"string"}],"stateMutability":"view","type":"function"},{"inputs":[],"name":"claimPayout","outputs":[],"stateMutability":"nonpayable","type":"function"},{"inputs":[{"internalType":"address","name":"","type":"address"}],"name":"claimablePayouts","outputs":[{"internalType":"uint256","name":"","type":"uint256"}],"stateMutability":"view","type":"function"},{"inputs":[],"name":"claimedRevenue","outputs":[{"internalType":"uint256","name":"","type":"uint256"}],"stateMutability":"view","type":"function"},{"inputs":[{"internalType":"bytes32","name":"bookingId","type":"bytes32"},{"internalType":"string","name":"preUseCID","type":"string"}],"name":"confirmCheckIn","outputs":[],"stateMutability":"nonpayable","type":"function"},{"inputs":[{"internalType":"bytes32","name":"bookingId","type":"bytes32"},{"internalType":"string","name":"postUseCID","type":"string"}],"name":"confirmCheckOut","outputs":[],"stateMutability":"nonpayable","type":"function"},{"inputs":[{"internalType":"bytes32","name":"bookingId","type":"bytes32"},{"internalType":"uint256","name":"start","type":"uint256"},{"internalType":"uint256","name":"end","type":"uint256"},{"internalType":"uint256","name":"deposit","type":"uint256"}],"name":"createBooking","outputs":[],"stateMutability":"nonpayable","type":"function"},{"inputs":[{"internalType":"string","name":"description","type":"string"}],"name":"createProposal","outputs":[{"internalType":"uint256","name":"","type":"uint256"}],"stateMutability":"nonpayable","type":"function"},{"inputs":[],"name":"decimals","outputs":[{"internalType":"uint8","name":"","type":"uint8"}],"stateMutability":"view","type":"function"},{"inputs":[{"internalType":"uint256","name":"amount","type":"uint256"}],"name":"distributeRevenue","outputs":[],"stateMutability":"nonpayable","type":"function"},{"inputs":[{"internalType":"uint256","name":"proposalId","type":"uint256"}],"name":"executeProposal","outputs":[],"stateMutability":"nonpayable","type":"function"},{"inputs":[{"internalType":"address","name":"user","type":"address"}],"name":"getClaimableAmount","outputs":[{"internalType":"uint256","name":"","type":"uint256"}],"stateMutability":"view","type":"function"},{"inputs":[],"name":"maintenanceFund","outputs":[{"internalType":"uint256","name":"","type":"uint256"}],"stateMutability":"view","type":"function"},{"inputs":[],"name":"maintenancePct","outputs":[{"internalType":"uint256","name":"","type":"uint256"}],"stateMutability":"view","type":"function"},{"inputs":[],"name":"metadataCID","outputs":[{"internalType":"string","name":"","type":"string"}],"stateMutability":"view","type":"function"},{"inputs":[],"name":"name","outputs":[{"internalType":"string","name":"","type":"string"}],"stateMutability":"view","type":"function"},{"inputs":[],"name":"owner","outputs":[{"internalType":"address","name":"","type":"address"}],"stateMutability":"view","type":"function"},{"inputs":[],"name":"proposalCount","outputs":[{"internalType":"uint256","name":"","type":"uint256"}],"stateMutability":"view","type":"function"},{"inputs":[{"internalType":"uint256","name":"","type":"uint256"}],"name":"proposals","outputs":[{"internalType":"string","name":"description","type":"string"},{"internalType":"uint256","name":"forVotes","type":"uint256"},{"internalType":"uint256","name":"againstVotes","type":"uint256"},{"internalType":"uint256","name":"deadline","type":"uint256"},{"internalType":"bool","name":"executed","type":"bool"}],"stateMutability":"view","type":"function"},{"inputs":[{"internalType":"uint256","name":"shares","type":"uint256"}],"name":"purchaseShares","outputs":[],"stateMutability":"nonpayable","type":"function"},{"inputs":[],"name":"renounceOwnership","outputs":[],"stateMutability":"nonpayable","type":"function"},{"inputs":[{"internalType":"bytes32","name":"bookingId","type":"bytes32"},{"internalType":"string","name":"damageCID","type":"string"}],"name":"reportDamage","outputs":[],"stateMutability":"nonpayable","type":"function"},{"inputs":[],"name":"sharePrice","outputs":[{"internalType":"uint256","name":"","type":"uint256"}],"stateMutability":"view","type":"function"},{"inputs":[],"name":"symbol","outputs":[{"internalType":"string","name":"","type":"string"}],"stateMutability":"view","type":"function"},{"inputs":[],"name":"totalRevenue","outputs":[{"internalType":"uint256","name":"","type":"uint256"}],"stateMutability":"view","type":"function"},{"inputs":[],"name":"totalSupply","outputs":[{"internalType":"uint256","name":"","type":"uint256"}],"stateMutability":"view","type":"function"},{"inputs":[{"internalType":"address","name":"to","type":"address"},{"internalType":"uint256","name":"value","type":"uint256"}],"name":"transfer","outputs":[{"internalType":"bool","name":"","type":"bool"}],"stateMutability":"nonpayable","type":"function"},{"inputs":[{"internalType":"address","name":"from","type":"address"},{"internalType":"address","name":"to","type":"address"},{"internalType":"uint256","name":"value","type":"uint256"}],"name":"transferFrom","outputs":[{"internalType":"bool","name":"","type":"bool"}],"stateMutability":"nonpayable","type":"function"},{"inputs":[{"internalType":"address","name":"newOwner","type":"address"}],"name":"transferOwnership","outputs":[],"stateMutability":"nonpayable","type":"function"},{"inputs":[],"name":"usdc","outputs":[{"internalType":"contract IERC20","name":"","type":"address"}],"stateMutability":"view","type":"function"},{"inputs":[{"internalType":"uint256","name":"proposalId","type":"uint256"},{"internalType":"bool","name":"support","type":"bool"}],"name":"vote","outputs":[],"stateMutability":"nonpayable","type":"function"}],"evm":{"bytecode":{"linkReferences":{},"object":"60a060405234801562000010575f80fd5b50604051620027463803806200274683398101604081905262000033916200036c565b8787876003620000448382620004c5565b506004620000538282620004c5565b50506001600555506001600160a01b0381166200008a57604051631e4fbdf760e01b81525f60048201526024015b60405180910390fd5b6200009581620000d6565b506007620000a48682620004c5565b5060088390556001600160a01b0382166080526009819055620000c8888562000127565b5050505050505050620005b3565b600680546001600160a01b038381166001600160a01b0319831681179093556040519116919082907f8be0079c531659141344cd1fd0a4f28419497f9722a3daafe3b4186f6b6457e0905f90a35050565b6001600160a01b038216620001525760405163ec442f0560e01b81525f600482015260240162000081565b6200015f5f838362000163565b5050565b6001600160a01b03831662000191578060025f8282546200018591906200058d565b90915550620002039050565b6001600160a01b0383165f9081526020819052604090205481811015620001e55760405163391434e360e21b81526001600160a01b0385166004820152602481018290526044810183905260640162000081565b6001600160a01b0384165f9081526020819052604090209082900390555b6001600160a01b03821662000221576002805482900390556200023f565b6001600160a01b0382165f9081526020819052604090208054820190555b816001600160a01b0316836001600160a01b03167fddf252ad1be2c89b69c2b068fc378daa952ba7f163c4a11628f55a4df523b3ef836040516200028591815260200190565b60405180910390a3505050565b80516001600160a01b0381168114620002a9575f80fd5b919050565b634e487b7160e01b5f52604160045260245ffd5b5f82601f830112620002d2575f80fd5b81516001600160401b0380821115620002ef57620002ef620002ae565b604051601f8301601f19908116603f011681019082821181831017156200031a576200031a620002ae565b8160405283815260209250868385880101111562000336575f80fd5b5f91505b838210156200035957858201830151818301840152908201906200033a565b5f93810190920192909252949350505050565b5f805f805f805f80610100898b03121562000385575f80fd5b620003908962000292565b60208a01519098506001600160401b0380821115620003ad575f80fd5b620003bb8c838d01620002c2565b985060408b0151915080821115620003d1575f80fd5b620003df8c838d01620002c2565b975060608b0151915080821115620003f5575f80fd5b50620004048b828c01620002c2565b9550506080890151935060a089015192506200042360c08a0162000292565b915060e089015190509295985092959890939650565b600181811c908216806200044e57607f821691505b6020821081036200046d57634e487b7160e01b5f52602260045260245ffd5b50919050565b601f821115620004c0575f81815260208120601f850160051c810160208610156200049b5750805b601f850160051c820191505b81811015620004bc57828155600101620004a7565b5050505b505050565b81516001600160401b03811115620004e157620004e1620002ae565b620004f981620004f2845462000439565b8462000473565b602080601f8311600181146200052f575f8415620005175750858301515b5f19600386901b1c1916600185901b178555620004bc565b5f85815260208120601f198616915b828110156200055f578886015182559484019460019091019084016200053e565b50858210156200057d57878501515f19600388901b60f8161c191681555b5050505050600190811b01905550565b80820180821115620005ad57634e487b7160e01b5f52601160045260245ffd5b92915050565b608051612157620005ef5f395f81816102f6015281816107ed01528181610d4701528181610faa0152818161145f015261170d01526121575ff3fe608060405234801561000f575f80fd5b50600436106101fd575f3560e01c806370a0823111610114578063bf2d9e0b116100a9578063df48981a11610079578063df48981a14610458578063e12f3a611461046b578063e3125ebb1461047e578063e88499a91461049d578063f2fde38b146104a5575f80fd5b8063bf2d9e0b146103fb578063c9d27afe14610404578063da35c66414610417578063dd62ed3e14610420575f80fd5b80638da5cb5b116100e45780638da5cb5b146103a757806395d89b41146103b8578063a9059cbb146103c0578063bbacc187146103d3575f80fd5b806370a0823114610370578063715018a614610383578063872697291461038b5780638a08bb2914610394575f80fd5b80632bb6ccb21161019557806349c2a1a61161016557806349c2a1a614610330578063555152cd1461034357806356cb829c1461034c57806358871c461461035557806359fde1e01461035d575f80fd5b80632bb6ccb2146102c6578063313ce567146102cf5780633895716e146102de5780633e413bee146102f1575f80fd5b806318160ddd116101d057806318160ddd1461027b5780632225c3511461028d57806323b872dd146102a057806329349148146102b3575f80fd5b8063013cf08b1461020157806306fdde031461022e578063095ea7b3146102435780630d61b51914610266575b5f80fd5b61021461020f366004611ba2565b6104b8565b604051610225959493929190611bfc565b60405180910390f35b61023661056f565b6040516102259190611c34565b610256610251366004611c68565b6105ff565b6040519015158152602001610225565b610279610274366004611ba2565b610618565b005b6002545b604051908152602001610225565b61027961029b366004611c90565b610741565b6102566102ae366004611cbf565b610a36565b6102796102c1366004611d95565b610a59565b61027f600a5481565b60405160128152602001610225565b6102796102ec366004611d95565b610ae3565b6103187f000000000000000000000000000000000000000000000000000000000000000081565b6040516001600160a01b039091168152602001610225565b61027f61033e366004611dd9565b610bde565b61027f600c5481565b61027f60095481565b610236610c89565b61027961036b366004611ba2565b610d15565b61027f61037e366004611e13565b610e96565b610279610eb0565b61027f60085481565b6102796103a2366004611d95565b610ec3565b6006546001600160a01b0316610318565b61023661108f565b6102566103ce366004611c68565b61109e565b6103e66103e1366004611ba2565b6110ab565b60405161022599989796959493929190611e2c565b61027f600b5481565b610279610412366004611eb5565b611298565b61027f600f5481565b61027f61042e366004611ee3565b6001600160a01b039182165f90815260016020908152604080832093909416825291909152205490565b610279610466366004611ba2565b611423565b61027f610479366004611e13565b611570565b61027f61048c366004611e13565b60106020525f908152604090205481565b6102796115e0565b6102796104b3366004611e13565b6117fe565b600e6020525f90815260409020805481906104d290611f14565b80601f01602080910402602001604051908101604052809291908181526020018280546104fe90611f14565b80156105495780601f1061052057610100808354040283529160200191610549565b820191905f5260205f20905b81548152906001019060200180831161052c57829003601f168201915b505050506001830154600284015460038501546004909501549394919390925060ff1685565b60606003805461057e90611f14565b80601f01602080910402602001604051908101604052809291908181526020018280546105aa90611f14565b80156105f55780601f106105cc576101008083540402835291602001916105f5565b820191905f5260205f20905b8154815290600101906020018083116105d857829003601f168201915b5050505050905090565b5f3361060c818585611838565b60019150505b92915050565b5f818152600e6020526040902060038101544210156106715760405162461bcd60e51b815260206004820152601060248201526f159bdd1a5b99c81b9bdd08195b99195960821b60448201526064015b60405180910390fd5b600481015460ff16156106b95760405162461bcd60e51b815260206004820152601060248201526f105b1c9958591e48195e1958dd5d195960821b6044820152606401610668565b80600201548160010154116107045760405162461bcd60e51b8152602060048201526011602482015270141c9bdc1bdcd85b081c995a9958dd1959607a1b6044820152606401610668565b60048101805460ff1916600117905560405182907f712ae1383f79ac853f8d882153778e0260ef8f03b504e2866e0593e04d2b291f905f90a25050565b61074961184a565b5f848152600d60205260409020546001600160a01b03161561079e5760405162461bcd60e51b815260206004820152600e60248201526d426f6f6b696e672065786973747360901b6044820152606401610668565b5f6107a833610e96565b116107c55760405162461bcd60e51b815260040161066890611f4c565b801561089c576040516323b872dd60e01b8152336004820152306024820152604481018290527f00000000000000000000000000000000000000000000000000000000000000006001600160a01b0316906323b872dd906064016020604051808303815f875af115801561083b573d5f803e3d5ffd5b505050506040513d601f19601f8201168201806040525081019061085f9190611f75565b61089c5760405162461bcd60e51b815260206004820152600e60248201526d11195c1bdcda5d0819985a5b195960921b6044820152606401610668565b60408051610120810182523381526020808201868152828401868152606084018681525f6080860181815260a0870182815288518088018a5283815260c0890190815289518089018b5284815260e08a015289518089018b52848152610100808b01919091528e8552600d90985298909220875181546001600160a01b0319166001600160a01b039091161781559451600186015592516002850155905160038401559051600483018054925161ffff1990931691151561ff00191691909117911515909302179091559151909190600582019061097a9082611fdd565b5060e0820151600682019061098f9082611fdd565b5061010082015160078201906109a59082611fdd565b5050604080518581526020810185905233925086917f9ca04ec3f47e447405be46c9f47c0ff120c4fb91e497488d3423aa773c6f2389910160405180910390a38015610a2657837f619bf0ac7a0c810932ba93ed5253879cfb7e9e28e88ee8113c3c739b9fb55b3482604051610a1d91815260200190565b60405180910390a25b610a306001600555565b50505050565b5f33610a43858285611874565b610a4e8585856118ea565b506001949350505050565b5f828152600d6020526040812090610a7033610e96565b11610a8d5760405162461bcd60e51b815260040161066890611f4c565b60078101610a9b8382611fdd565b50336001600160a01b0316837f0516efb158d4000063ea8a498b3bda171aa4c5eb6739bffe81ed8f0742d564ef84604051610ad69190611c34565b60405180910390a3505050565b5f828152600d6020526040902080546001600160a01b03163314610b3d5760405162461bcd60e51b81526020600482015260116024820152702737ba103137b7b5b4b7339037bbb732b960791b6044820152606401610668565b600481015460ff1615610b835760405162461bcd60e51b815260206004820152600e60248201526d416c72656164792061637469766560901b6044820152606401610668565b60048101805460ff1916600117905560058101610ba08382611fdd565b50827fb35a2f9b2ed656104c5312246f0ab185676be2be2b0a0e43098d416ee648e14083604051610bd19190611c34565b60405180910390a2505050565b5f80610be933610e96565b11610c065760405162461bcd60e51b815260040161066890611f4c565b600f80545f9182610c16836120ad565b909155505f818152600e6020526040902090915080610c358582611fdd565b50610c434262093a806120c5565b600382015560405182907f9c770c289ab5bf7e57cb1d23c8ceae993aea46eb64847072fd3d78ca60d3e43290610c7a908790611c34565b60405180910390a25092915050565b60078054610c9690611f14565b80601f0160208091040260200160405190810160405280929190818152602001828054610cc290611f14565b8015610d0d5780601f10610ce457610100808354040283529160200191610d0d565b820191905f5260205f20905b815481529060010190602001808311610cf057829003601f168201915b505050505081565b610d1d611947565b610d2561184a565b6040516323b872dd60e01b8152336004820152306024820152604481018290527f00000000000000000000000000000000000000000000000000000000000000006001600160a01b0316906323b872dd906064016020604051808303815f875af1158015610d95573d5f803e3d5ffd5b505050506040513d601f19601f82011682018060405250810190610db99190611f75565b610df75760405162461bcd60e51b815260206004820152600f60248201526e151c985b9cd9995c8819985a5b1959608a1b6044820152606401610668565b5f61271060095483610e0991906120d8565b610e1391906120ef565b905080600a5f828254610e2691906120c5565b909155505f9050610e37828461210e565b905080600b5f828254610e4a91906120c5565b9091555050604080518281524260208201527f2703ace359e89cb73a330208d4f9b64e82f078a6bebf4e8cc58a549fc64cfd21910160405180910390a15050610e936001600555565b50565b6001600160a01b03165f9081526020819052604090205490565b610eb8611947565b610ec15f611974565b565b5f828152600d6020526040902080546001600160a01b03163314610f1d5760405162461bcd60e51b81526020600482015260116024820152702737ba103137b7b5b4b7339037bbb732b960791b6044820152606401610668565b600481015460ff16610f5e5760405162461bcd60e51b815260206004820152600a6024820152694e6f742061637469766560b01b6044820152606401610668565b60048101805461ffff191661010017905560068101610f7d8382611fdd565b5060038101541561105f57600381015460405163a9059cbb60e01b815233600482015260248101919091527f00000000000000000000000000000000000000000000000000000000000000006001600160a01b03169063a9059cbb906044016020604051808303815f875af1158015610ff8573d5f803e3d5ffd5b505050506040513d601f19601f8201168201806040525081019061101c9190611f75565b6110585760405162461bcd60e51b815260206004820152600d60248201526c1499599d5b990819985a5b1959609a1b6044820152606401610668565b5f60038201555b827fd4b084565278747e30b0582df935125f87310edcf3df8c15cd294975ff09e72583604051610bd19190611c34565b60606004805461057e90611f14565b5f3361060c8185856118ea565b600d6020525f90815260409020805460018201546002830154600384015460048501546005860180546001600160a01b039096169694959394929360ff80841694610100909404169291906110ff90611f14565b80601f016020809104026020016040519081016040528092919081815260200182805461112b90611f14565b80156111765780601f1061114d57610100808354040283529160200191611176565b820191905f5260205f20905b81548152906001019060200180831161115957829003601f168201915b50505050509080600601805461118b90611f14565b80601f01602080910402602001604051908101604052809291908181526020018280546111b790611f14565b80156112025780601f106111d957610100808354040283529160200191611202565b820191905f5260205f20905b8154815290600101906020018083116111e557829003601f168201915b50505050509080600701805461121790611f14565b80601f016020809104026020016040519081016040528092919081815260200182805461124390611f14565b801561128e5780601f106112655761010080835404028352916020019161128e565b820191905f5260205f20905b81548152906001019060200180831161127157829003601f168201915b5050505050905089565b5f828152600e60205260409020600381015442106112e75760405162461bcd60e51b815260206004820152600c60248201526b159bdd1a5b99c8195b99195960a21b6044820152606401610668565b335f90815260058201602052604090205460ff16156113385760405162461bcd60e51b815260206004820152600d60248201526c105b1c9958591e481d9bdd1959609a1b6044820152606401610668565b5f61134233610e96565b90505f81116113855760405162461bcd60e51b815260206004820152600f60248201526e2737903b37ba34b733903837bbb2b960891b6044820152606401610668565b335f9081526005830160205260409020805460ff1916600117905582156113c45780826001015f8282546113b991906120c5565b909155506113dd9050565b80826002015f8282546113d791906120c5565b90915550505b60408051841515815260208101839052339186917f7c2de587c00d75474a0c6c6fa96fd3b45dc974cd4e8a75f712bb84c950dce1b591015b60405180910390a350505050565b61142b61184a565b5f6008548261143a91906120d8565b6040516323b872dd60e01b8152336004820152306024820152604481018290529091507f00000000000000000000000000000000000000000000000000000000000000006001600160a01b0316906323b872dd906064016020604051808303815f875af11580156114ad573d5f803e3d5ffd5b505050506040513d601f19601f820116820180604052508101906114d19190611f75565b61150e5760405162461bcd60e51b815260206004820152600e60248201526d14185e5b595b9d0819985a5b195960921b6044820152606401610668565b61152a6115236006546001600160a01b031690565b33846118ea565b604080518381526020810183905233917f630b54f21d1c5ae41c4633ad96e8c15ce15665365eded6a38476ffa71c8ace6c910160405180910390a250610e936001600555565b5f8061157b83610e96565b9050805f0361158c57505f92915050565b5f61159660025490565b90505f8183600b546115a891906120d8565b6115b291906120ef565b6001600160a01b0386165f908152601060205260409020549091506115d7908261210e565b95945050505050565b6115e861184a565b5f6115f233610e96565b90505f811161162f5760405162461bcd60e51b81526020600482015260096024820152684e6f2073686172657360b81b6044820152606401610668565b5f61163960025490565b90505f8183600b5461164b91906120d8565b61165591906120ef565b335f9081526010602052604081205491925090611672908361210e565b90505f81116116b65760405162461bcd60e51b815260206004820152601060248201526f4e6f7468696e6720746f20636c61696d60801b6044820152606401610668565b335f90815260106020526040812080548392906116d49084906120c5565b9250508190555080600c5f8282546116ec91906120c5565b909155505060405163a9059cbb60e01b8152336004820152602481018290527f00000000000000000000000000000000000000000000000000000000000000006001600160a01b03169063a9059cbb906044016020604051808303815f875af115801561175b573d5f803e3d5ffd5b505050506040513d601f19601f8201168201806040525081019061177f9190611f75565b6117bb5760405162461bcd60e51b815260206004820152600d60248201526c14185e5bdd5d0819985a5b1959609a1b6044820152606401610668565b60405181815233907fec68461f5d4cc45c89e914cb8826a966c73dd35e5f97815ece0a01ffa4a025a69060200160405180910390a250505050610ec16001600555565b611806611947565b6001600160a01b03811661182f57604051631e4fbdf760e01b81525f6004820152602401610668565b610e9381611974565b61184583838360016119c5565b505050565b60026005540361186d57604051633ee5aeb560e01b815260040160405180910390fd5b6002600555565b6001600160a01b038381165f908152600160209081526040808320938616835292905220545f19811015610a3057818110156118dc57604051637dc7a0d960e11b81526001600160a01b03841660048201526024810182905260448101839052606401610668565b610a3084848484035f6119c5565b6001600160a01b03831661191357604051634b637e8f60e11b81525f6004820152602401610668565b6001600160a01b03821661193c5760405163ec442f0560e01b81525f6004820152602401610668565b611845838383611a89565b6006546001600160a01b03163314610ec15760405163118cdaa760e01b8152336004820152602401610668565b600680546001600160a01b038381166001600160a01b0319831681179093556040519116919082907f8be0079c531659141344cd1fd0a4f28419497f9722a3daafe3b4186f6b6457e0905f90a35050565b6001600160a01b0384166119ee5760405163e602df0560e01b81525f6004820152602401610668565b6001600160a01b038316611a1757604051634a1406b160e11b81525f6004820152602401610668565b6001600160a01b038085165f9081526001602090815260408083209387168352929052208290558015610a3057826001600160a01b0316846001600160a01b03167f8c5be1e5ebec7d5bd14f71427d1e84f3dd0314c0f7b2291e5b200ac8c7c3b9258460405161141591815260200190565b6001600160a01b038316611ab3578060025f828254611aa891906120c5565b90915550611b239050565b6001600160a01b0383165f9081526020819052604090205481811015611b055760405163391434e360e21b81526001600160a01b03851660048201526024810182905260448101839052606401610668565b6001600160a01b0384165f9081526020819052604090209082900390555b6001600160a01b038216611b3f57600280548290039055611b5d565b6001600160a01b0382165f9081526020819052604090208054820190555b816001600160a01b0316836001600160a01b03167fddf252ad1be2c89b69c2b068fc378daa952ba7f163c4a11628f55a4df523b3ef83604051610ad691815260200190565b5f60208284031215611bb2575f80fd5b5035919050565b5f81518084525f5b81811015611bdd57602081850181015186830182015201611bc1565b505f602082860101526020601f19601f83011685010191505092915050565b60a081525f611c0e60a0830188611bb9565b905085602083015284604083015283606083015282151560808301529695505050505050565b602081525f611c466020830184611bb9565b9392505050565b80356001600160a01b0381168114611c63575f80fd5b919050565b5f8060408385031215611c79575f80fd5b611c8283611c4d565b946020939093013593505050565b5f805f8060808587031215611ca3575f80fd5b5050823594602084013594506040840135936060013592509050565b5f805f60608486031215611cd1575f80fd5b611cda84611c4d565b9250611ce860208501611c4d565b9150604084013590509250925092565b634e487b7160e01b5f52604160045260245ffd5b5f82601f830112611d1b575f80fd5b813567ffffffffffffffff80821115611d3657611d36611cf8565b604051601f8301601f19908116603f01168101908282118183101715611d5e57611d5e611cf8565b81604052838152866020858801011115611d76575f80fd5b836020870160208301375f602085830101528094505050505092915050565b5f8060408385031215611da6575f80fd5b82359150602083013567ffffffffffffffff811115611dc3575f80fd5b611dcf85828601611d0c565b9150509250929050565b5f60208284031215611de9575f80fd5b813567ffffffffffffffff811115611dff575f80fd5b611e0b84828501611d0c565b949350505050565b5f60208284031215611e23575f80fd5b611c4682611c4d565b5f61012060018060a01b038c1683528a6020840152896040840152886060840152871515608084015286151560a08401528060c0840152611e6f81840187611bb9565b905082810360e0840152611e838186611bb9565b9050828103610100840152611e988185611bb9565b9c9b505050505050505050505050565b8015158114610e93575f80fd5b5f8060408385031215611ec6575f80fd5b823591506020830135611ed881611ea8565b809150509250929050565b5f8060408385031215611ef4575f80fd5b611efd83611c4d565b9150611f0b60208401611c4d565b90509250929050565b600181811c90821680611f2857607f821691505b602082108103611f4657634e487b7160e01b5f52602260045260245ffd5b50919050565b6020808252600f908201526e4d757374206f776e2073686172657360881b604082015260600190565b5f60208284031215611f85575f80fd5b8151611c4681611ea8565b601f821115611845575f81815260208120601f850160051c81016020861015611fb65750805b601f850160051c820191505b81811015611fd557828155600101611fc2565b505050505050565b815167ffffffffffffffff811115611ff757611ff7611cf8565b61200b816120058454611f14565b84611f90565b602080601f83116001811461203e575f84156120275750858301515b5f19600386901b1c1916600185901b178555611fd5565b5f85815260208120601f198616915b8281101561206c5788860151825594840194600190910190840161204d565b508582101561208957878501515f19600388901b60f8161c191681555b5050505050600190811b01905550565b634e487b7160e01b5f52601160045260245ffd5b5f600182016120be576120be612099565b5060010190565b8082018082111561061257610612612099565b808202811582820484141761061257610612612099565b5f8261210957634e487b7160e01b5f52601260045260245ffd5b500490565b818103818111156106125761061261209956fea264697066735822122043c5180db0c9d991ebc40be486b4472dc08bf819f94abc853e769d2e2a57717e64736f6c63430008140033","opcodes":"PUSH1 0xA0 PUSH1 0x40 MSTORE CALLVALUE DUP1 ISZERO PUSH3 0x10 JUMPI PUSH0 DUP1 REVERT JUMPDEST POP PUSH1 0x40 MLOAD PUSH3 0x2746 CODESIZE SUB DUP1 PUSH3 0x2746 DUP4 CODECOPY DUP2 ADD PUSH1 0x40 DUP2 SWAP1 MSTORE PUSH3 0x33 SWAP2 PUSH3 0x36C JUMP JUMPDEST DUP8 DUP8 DUP8 PUSH1 0x3 PUSH3 0x44 DUP4 DUP3 PUSH3 0x4C5 JUMP JUMPDEST POP PUSH1 0x4 PUSH3 0x53 DUP3 DUP3 PUSH3 0x4C5 JUMP JUMPDEST POP POP PUSH1 0x1 PUSH1 0x5 SSTORE POP PUSH1 0x1 PUSH1 0x1 PUSH1 0xA0 SHL SUB DUP2 AND PUSH3 0x8A JUMPI PUSH1 0x40 MLOAD PUSH4 0x1E4FBDF7 PUSH1 0xE0 SHL DUP2 MSTORE PUSH0 PUSH1 0x4 DUP3 ADD MSTORE PUSH1 0x24 ADD JUMPDEST PUSH1 0x40 MLOAD DUP1 SWAP2 SUB SWAP1 REVERT JUMPDEST PUSH3 0x95 DUP2 PUSH3 0xD6 JUMP JUMPDEST POP PUSH1 0x7 PUSH3 0xA4 DUP7 DUP3 PUSH3 0x4C5 JUMP JUMPDEST POP PUSH1 0x8 DUP4 SWAP1 SSTORE PUSH1 0x1 PUSH1 0x1 PUSH1 0xA0 SHL SUB DUP3 AND PUSH1 0x80 MSTORE PUSH1 0x9 DUP2 SWAP1 SSTORE PUSH3 0xC8 DUP9 DUP6 PUSH3 0x127 JUMP JUMPDEST POP POP POP POP POP POP POP POP PUSH3 0x5B3 JUMP JUMPDEST PUSH1 0x6 DUP1 SLOAD PUSH1 0x1 PUSH1 0x1 PUSH1 0xA0 SHL SUB DUP4 DUP2 AND PUSH1 0x1 PUSH1 0x1 PUSH1 0xA0 SHL SUB NOT DUP4 AND DUP2 OR SWAP1 SWAP4 SSTORE PUSH1 0x40 MLOAD SWAP2 AND SWAP2 SWAP1 DUP3 SWAP1 PUSH32 0x8BE0079C531659141344CD1FD0A4F28419497F9722A3DAAFE3B4186F6B6457E0 SWAP1 PUSH0 SWAP1 LOG3 POP POP JUMP JUMPDEST PUSH1 0x1 PUSH1 0x1 PUSH1 0xA0 SHL SUB DUP3 AND PUSH3 0x152 JUMPI PUSH1 0x40 MLOAD PUSH4 0xEC442F05 PUSH1 0xE0 SHL DUP2 MSTORE PUSH0 PUSH1 0x4 DUP3 ADD MSTORE PUSH1 0x24 ADD PUSH3 0x81 JUMP JUMPDEST PUSH3 0x15F PUSH0 DUP4 DUP4 PUSH3 0x163 JUMP JUMPDEST POP POP JUMP JUMPDEST PUSH1 0x1 PUSH1 0x1 PUSH1 0xA0 SHL SUB DUP4 AND PUSH3 0x191 JUMPI DUP1 PUSH1 0x2 PUSH0 DUP3 DUP3 SLOAD PUSH3 0x185 SWAP2 SWAP1 PUSH3 0x58D JUMP JUMPDEST SWAP1 SWAP2 SSTORE POP PUSH3 0x203 SWAP1 POP JUMP JUMPDEST PUSH1 0x1 PUSH1 0x1 PUSH1 0xA0 SHL SUB DUP4 AND PUSH0 SWAP1 DUP2 MSTORE PUSH1 0x20 DUP2 SWAP1 MSTORE PUSH1 0x40 SWAP1 KECCAK256 SLOAD DUP2 DUP2 LT ISZERO PUSH3 0x1E5 JUMPI PUSH1 0x40 MLOAD PUSH4 0x391434E3 PUSH1 0xE2 SHL DUP2 MSTORE PUSH1 0x1 PUSH1 0x1 PUSH1 0xA0 SHL SUB DUP6 AND PUSH1 0x4 DUP3 ADD MSTORE PUSH1 0x24 DUP2 ADD DUP3 SWAP1 MSTORE PUSH1 0x44 DUP2 ADD DUP4 SWAP1 MSTORE PUSH1 0x64 ADD PUSH3 0x81 JUMP JUMPDEST PUSH1 0x1 PUSH1 0x1 PUSH1 0xA0 SHL SUB DUP5 AND PUSH0 SWAP1 DUP2 MSTORE PUSH1 0x20 DUP2 SWAP1 MSTORE PUSH1 0x40 SWAP1 KECCAK256 SWAP1 DUP3 SWAP1 SUB SWAP1 SSTORE JUMPDEST PUSH1 0x1 PUSH1 0x1 PUSH1 0xA0 SHL SUB DUP3 AND PUSH3 0x221 JUMPI PUSH1 0x2 DUP1 SLOAD DUP3 SWAP1 SUB SWAP1 SSTORE PUSH3 0x23F JUMP JUMPDEST PUSH1 0x1 PUSH1 0x1 PUSH1 0xA0 SHL SUB DUP3 AND PUSH0 SWAP1 DUP2 MSTORE PUSH1 0x20 DUP2 SWAP1 MSTORE PUSH1 0x40 SWAP1 KECCAK256 DUP1 SLOAD DUP3 ADD SWAP1 SSTORE JUMPDEST DUP2 PUSH1 0x1 PUSH1 0x1 PUSH1 0xA0 SHL SUB AND DUP4 PUSH1 0x1 PUSH1 0x1 PUSH1 0xA0 SHL SUB AND PUSH32 0xDDF252AD1BE2C89B69C2B068FC378DAA952BA7F163C4A11628F55A4DF523B3EF DUP4 PUSH1 0x40 MLOAD PUSH3 0x285 SWAP2 DUP2 MSTORE PUSH1 0x20 ADD SWAP1 JUMP JUMPDEST PUSH1 0x40 MLOAD DUP1 SWAP2 SUB SWAP1 LOG3 POP POP POP JUMP JUMPDEST DUP1 MLOAD PUSH1 0x1 PUSH1 0x1 PUSH1 0xA0 SHL SUB DUP2 AND DUP2 EQ PUSH3 0x2A9 JUMPI PUSH0 DUP1 REVERT JUMPDEST SWAP2 SWAP1 POP JUMP JUMPDEST PUSH4 0x4E487B71 PUSH1 0xE0 SHL PUSH0 MSTORE PUSH1 0x41 PUSH1 0x4 MSTORE PUSH1 0x24 PUSH0 REVERT JUMPDEST PUSH0 DUP3 PUSH1 0x1F DUP4 ADD SLT PUSH3 0x2D2 JUMPI PUSH0 DUP1 REVERT JUMPDEST DUP2 MLOAD PUSH1 0x1 PUSH1 0x1 PUSH1 0x40 SHL SUB DUP1 DUP3 GT ISZERO PUSH3 0x2EF JUMPI PUSH3 0x2EF PUSH3 0x2AE JUMP JUMPDEST PUSH1 0x40 MLOAD PUSH1 0x1F DUP4 ADD PUSH1 0x1F NOT SWAP1 DUP2 AND PUSH1 0x3F ADD AND DUP2 ADD SWAP1 DUP3 DUP3 GT DUP2 DUP4 LT OR ISZERO PUSH3 0x31A JUMPI PUSH3 0x31A PUSH3 0x2AE JUMP JUMPDEST DUP2 PUSH1 0x40 MSTORE DUP4 DUP2 MSTORE PUSH1 0x20 SWAP3 POP DUP7 DUP4 DUP6 DUP9 ADD ADD GT ISZERO PUSH3 0x336 JUMPI PUSH0 DUP1 REVERT JUMPDEST PUSH0 SWAP2 POP JUMPDEST DUP4 DUP3 LT ISZERO PUSH3 0x359 JUMPI DUP6 DUP3 ADD DUP4 ADD MLOAD DUP2 DUP4 ADD DUP5 ADD MSTORE SWAP1 DUP3 ADD SWAP1 PUSH3 0x33A JUMP JUMPDEST PUSH0 SWAP4 DUP2 ADD SWAP1 SWAP3 ADD SWAP3 SWAP1 SWAP3 MSTORE SWAP5 SWAP4 POP POP POP POP JUMP JUMPDEST PUSH0 DUP1 PUSH0 DUP1 PUSH0 DUP1 PUSH0 DUP1 PUSH2 0x100 DUP10 DUP12 SUB SLT ISZERO PUSH3 0x385 JUMPI PUSH0 DUP1 REVERT JUMPDEST PUSH3 0x390 DUP10 PUSH3 0x292 JUMP JUMPDEST PUSH1 0x20 DUP11 ADD MLOAD SWAP1 SWAP9 POP PUSH1 0x1 PUSH1 0x1 PUSH1 0x40 SHL SUB DUP1 DUP3 GT ISZERO PUSH3 0x3AD JUMPI PUSH0 DUP1 REVERT JUMPDEST PUSH3 0x3BB DUP13 DUP4 DUP14 ADD PUSH3 0x2C2 JUMP JUMPDEST SWAP9 POP PUSH1 0x40 DUP12 ADD MLOAD SWAP2 POP DUP1 DUP3 GT ISZERO PUSH3 0x3D1 JUMPI PUSH0 DUP1 REVERT JUMPDEST PUSH3 0x3DF DUP13 DUP4 DUP14 ADD PUSH3 0x2C2 JUMP JUMPDEST SWAP8 POP PUSH1 0x60 DUP12 ADD MLOAD SWAP2 POP DUP1 DUP3 GT ISZERO PUSH3 0x3F5 JUMPI PUSH0 DUP1 REVERT JUMPDEST POP PUSH3 0x404 DUP12 DUP3 DUP13 ADD PUSH3 0x2C2 JUMP JUMPDEST SWAP6 POP POP PUSH1 0x80 DUP10 ADD MLOAD SWAP4 POP PUSH1 0xA0 DUP10 ADD MLOAD SWAP3 POP PUSH3 0x423 PUSH1 0xC0 DUP11 ADD PUSH3 0x292 JUMP JUMPDEST SWAP2 POP PUSH1 0xE0 DUP10 ADD MLOAD SWAP1 POP SWAP3 SWAP6 SWAP9 POP SWAP3 SWAP6 SWAP9 SWAP1 SWAP4 SWAP7 POP JUMP JUMPDEST PUSH1 0x1 DUP2 DUP2 SHR SWAP1 DUP3 AND DUP1 PUSH3 0x44E JUMPI PUSH1 0x7F DUP3 AND SWAP2 POP JUMPDEST PUSH1 0x20 DUP3 LT DUP2 SUB PUSH3 0x46D JUMPI PUSH4 0x4E487B71 PUSH1 0xE0 SHL PUSH0 MSTORE PUSH1 0x22 PUSH1 0x4 MSTORE PUSH1 0x24 PUSH0 REVERT JUMPDEST POP SWAP2 SWAP1 POP JUMP JUMPDEST PUSH1 0x1F DUP3 GT ISZERO PUSH3 0x4C0 JUMPI PUSH0 DUP2 DUP2 MSTORE PUSH1 0x20 DUP2 KECCAK256 PUSH1 0x1F DUP6 ADD PUSH1 0x5 SHR DUP2 ADD PUSH1 0x20 DUP7 LT ISZERO PUSH3 0x49B JUMPI POP DUP1 JUMPDEST PUSH1 0x1F DUP6 ADD PUSH1 0x5 SHR DUP3 ADD SWAP2 POP JUMPDEST DUP2 DUP2 LT ISZERO PUSH3 0x4BC JUMPI DUP3 DUP2 SSTORE PUSH1 0x1 ADD PUSH3 0x4A7 JUMP JUMPDEST POP POP POP JUMPDEST POP POP POP JUMP JUMPDEST DUP2 MLOAD PUSH1 0x1 PUSH1 0x1 PUSH1 0x40 SHL SUB DUP2 GT ISZERO PUSH3 0x4E1 JUMPI PUSH3 0x4E1 PUSH3 0x2AE JUMP JUMPDEST PUSH3 0x4F9 DUP2 PUSH3 0x4F2 DUP5 SLOAD PUSH3 0x439 JUMP JUMPDEST DUP5 PUSH3 0x473 JUMP JUMPDEST PUSH1 0x20 DUP1 PUSH1 0x1F DUP4 GT PUSH1 0x1 DUP2 EQ PUSH3 0x52F JUMPI PUSH0 DUP5 ISZERO PUSH3 0x517 JUMPI POP DUP6 DUP4 ADD MLOAD JUMPDEST PUSH0 NOT PUSH1 0x3 DUP7 SWAP1 SHL SHR NOT AND PUSH1 0x1 DUP6 SWAP1 SHL OR DUP6 SSTORE PUSH3 0x4BC JUMP JUMPDEST PUSH0 DUP6 DUP2 MSTORE PUSH1 0x20 DUP2 KECCAK256 PUSH1 0x1F NOT DUP7 AND SWAP2 JUMPDEST DUP3 DUP2 LT ISZERO PUSH3 0x55F JUMPI DUP9 DUP7 ADD MLOAD DUP3 SSTORE SWAP5 DUP5 ADD SWAP5 PUSH1 0x1 SWAP1 SWAP2 ADD SWAP1 DUP5 ADD PUSH3 0x53E JUMP JUMPDEST POP DUP6 DUP3 LT ISZERO PUSH3 0x57D JUMPI DUP8 DUP6 ADD MLOAD PUSH0 NOT PUSH1 0x3 DUP9 SWAP1 SHL PUSH1 0xF8 AND SHR NOT AND DUP2 SSTORE JUMPDEST POP POP POP POP POP PUSH1 0x1 SWAP1 DUP2 SHL ADD SWAP1 SSTORE POP JUMP JUMPDEST DUP1 DUP3 ADD DUP1 DUP3 GT ISZERO PUSH3 0x5AD JUMPI PUSH4 0x4E487B71 PUSH1 0xE0 SHL PUSH0 MSTORE PUSH1 0x11 PUSH1 0x4 MSTORE PUSH1 0x24 PUSH0 REVERT JUMPDEST SWAP3 SWAP2 POP POP JUMP JUMPDEST PUSH1 0x80 MLOAD PUSH2 0x2157 PUSH3 0x5EF PUSH0 CODECOPY PUSH0 DUP2 DUP2 PUSH2 0x2F6 ADD MSTORE DUP2 DUP2 PUSH2 0x7ED ADD MSTORE DUP2 DUP2 PUSH2 0xD47 ADD MSTORE DUP2 DUP2 PUSH2 0xFAA ADD MSTORE DUP2 DUP2 PUSH2 0x145F ADD MSTORE PUSH2 0x170D ADD MSTORE PUSH2 0x2157 PUSH0 RETURN INVALID PUSH1 0x80 PUSH1 0x40 MSTORE CALLVALUE DUP1 ISZERO PUSH2 0xF JUMPI PUSH0 DUP1 REVERT JUMPDEST POP PUSH1 0x4 CALLDATASIZE LT PUSH2 0x1FD JUMPI PUSH0 CALLDATALOAD PUSH1 0xE0 SHR DUP1 PUSH4 0x70A08231 GT PUSH2 0x114 JUMPI DUP1 PUSH4 0xBF2D9E0B GT PUSH2 0xA9 JUMPI DUP1 PUSH4 0xDF48981A GT PUSH2 0x79 JUMPI DUP1 PUSH4 0xDF48981A EQ PUSH2 0x458 JUMPI DUP1 PUSH4 0xE12F3A61 EQ PUSH2 0x46B JUMPI DUP1 PUSH4 0xE3125EBB EQ PUSH2 0x47E JUMPI DUP1 PUSH4 0xE88499A9 EQ PUSH2 0x49D JUMPI DUP1 PUSH4 0xF2FDE38B EQ PUSH2 0x4A5 JUMPI PUSH0 DUP1 REVERT JUMPDEST DUP1 PUSH4 0xBF2D9E0B EQ PUSH2 0x3FB JUMPI DUP1 PUSH4 0xC9D27AFE EQ PUSH2 0x404 JUMPI DUP1 PUSH4 0xDA35C664 EQ PUSH2 0x417 JUMPI DUP1 PUSH4 0xDD62ED3E EQ PUSH2 0x420 JUMPI PUSH0 DUP1 REVERT JUMPDEST DUP1 PUSH4 0x8DA5CB5B GT PUSH2 0xE4 JUMPI DUP1 PUSH4 0x8DA5CB5B EQ PUSH2 0x3A7 JUMPI DUP1 PUSH4 0x95D89B41 EQ PUSH2 0x3B8 JUMPI DUP1 PUSH4 0xA9059CBB EQ PUSH2 0x3C0 JUMPI DUP1 PUSH4 0xBBACC187 EQ PUSH2 0x3D3 JUMPI PUSH0 DUP1 REVERT JUMPDEST DUP1 PUSH4 0x70A08231 EQ PUSH2 0x370 JUMPI DUP1 PUSH4 0x715018A6 EQ PUSH2 0x383 JUMPI DUP1 PUSH4 0x87269729 EQ PUSH2 0x38B JUMPI DUP1 PUSH4 0x8A08BB29 EQ PUSH2 0x394 JUMPI PUSH0 DUP1 REVERT JUMPDEST DUP1 PUSH4 0x2BB6CCB2 GT PUSH2 0x195 JUMPI DUP1 PUSH4 0x49C2A1A6 GT PUSH2 0x165 JUMPI DUP1 PUSH4 0x49C2A1A6 EQ PUSH2 0x330 JUMPI DUP1 PUSH4 0x555152CD EQ PUSH2 0x343 JUMPI DUP1 PUSH4 0x56CB829C EQ PUSH2 0x34C JUMPI DUP1 PUSH4 0x58871C46 EQ PUSH2 0x355 JUMPI DUP1 PUSH4 0x59FDE1E0 EQ PUSH2 0x35D JUMPI PUSH0 DUP1 REVERT JUMPDEST DUP1 PUSH4 0x2BB6CCB2 EQ PUSH2 0x2C6 JUMPI DUP1 PUSH4 0x313CE567 EQ PUSH2 0x2CF JUMPI DUP1 PUSH4 0x3895716E EQ PUSH2 0x2DE JUMPI DUP1 PUSH4 0x3E413BEE EQ PUSH2 0x2F1 JUMPI PUSH0 DUP1 REVERT JUMPDEST DUP1 PUSH4 0x18160DDD GT PUSH2 0x1D0 JUMPI DUP1 PUSH4 0x18160DDD EQ PUSH2 0x27B JUMPI DUP1 PUSH4 0x2225C351 EQ PUSH2 0x28D JUMPI DUP1 PUSH4 0x23B872DD EQ PUSH2 0x2A0 JUMPI DUP1 PUSH4 0x29349148 EQ PUSH2 0x2B3 JUMPI PUSH0 DUP1 REVERT JUMPDEST DUP1 PUSH4 0x13CF08B EQ PUSH2 0x201 JUMPI DUP1 PUSH4 0x6FDDE03 EQ PUSH2 0x22E JUMPI DUP1 PUSH4 0x95EA7B3 EQ PUSH2 0x243 JUMPI DUP1 PUSH4 0xD61B519 EQ PUSH2 0x266 JUMPI JUMPDEST PUSH0 DUP1 REVERT JUMPDEST PUSH2 0x214 PUSH2 0x20F CALLDATASIZE PUSH1 0x4 PUSH2 0x1BA2 JUMP JUMPDEST PUSH2 0x4B8 JUMP JUMPDEST PUSH1 0x40 MLOAD PUSH2 0x225 SWAP6 SWAP5 SWAP4 SWAP3 SWAP2 SWAP1 PUSH2 0x1BFC JUMP JUMPDEST PUSH1 0x40 MLOAD DUP1 SWAP2 SUB SWAP1 RETURN JUMPDEST PUSH2 0x236 PUSH2 0x56F JUMP JUMPDEST PUSH1 0x40 MLOAD PUSH2 0x225 SWAP2 SWAP1 PUSH2 0x1C34 JUMP JUMPDEST PUSH2 0x256 PUSH2 0x251 CALLDATASIZE PUSH1 0x4 PUSH2 0x1C68 JUMP JUMPDEST PUSH2 0x5FF JUMP JUMPDEST PUSH1 0x40 MLOAD SWAP1 ISZERO ISZERO DUP2 MSTORE PUSH1 0x20 ADD PUSH2 0x225 JUMP JUMPDEST PUSH2 0x279 PUSH2 0x274 CALLDATASIZE PUSH1 0x4 PUSH2 0x1BA2 JUMP JUMPDEST PUSH2 0x618 JUMP JUMPDEST STOP JUMPDEST PUSH1 0x2 SLOAD JUMPDEST PUSH1 0x40 MLOAD SWAP1 DUP2 MSTORE PUSH1 0x20 ADD PUSH2 0x225 JUMP JUMPDEST PUSH2 0x279 PUSH2 0x29B CALLDATASIZE PUSH1 0x4 PUSH2 0x1C90 JUMP JUMPDEST PUSH2 0x741 JUMP JUMPDEST PUSH2 0x256 PUSH2 0x2AE CALLDATASIZE PUSH1 0x4 PUSH2 0x1CBF JUMP JUMPDEST PUSH2 0xA36 JUMP JUMPDEST PUSH2 0x279 PUSH2 0x2C1 CALLDATASIZE PUSH1 0x4 PUSH2 0x1D95 JUMP JUMPDEST PUSH2 0xA59 JUMP JUMPDEST PUSH2 0x27F PUSH1 0xA SLOAD DUP2 JUMP JUMPDEST PUSH1 0x40 MLOAD PUSH1 0x12 DUP2 MSTORE PUSH1 0x20 ADD PUSH2 0x225 JUMP JUMPDEST PUSH2 0x279 PUSH2 0x2EC CALLDATASIZE PUSH1 0x4 PUSH2 0x1D95 JUMP JUMPDEST PUSH2 0xAE3 JUMP JUMPDEST PUSH2 0x318 PUSH32 0x0 DUP2 JUMP JUMPDEST PUSH1 0x40 MLOAD PUSH1 0x1 PUSH1 0x1 PUSH1 0xA0 SHL SUB SWAP1 SWAP2 AND DUP2 MSTORE PUSH1 0x20 ADD PUSH2 0x225 JUMP JUMPDEST PUSH2 0x27F PUSH2 0x33E CALLDATASIZE PUSH1 0x4 PUSH2 0x1DD9 JUMP JUMPDEST PUSH2 0xBDE JUMP JUMPDEST PUSH2 0x27F PUSH1 0xC SLOAD DUP2 JUMP JUMPDEST PUSH2 0x27F PUSH1 0x9 SLOAD DUP2 JUMP JUMPDEST PUSH2 0x236 PUSH2 0xC89 JUMP JUMPDEST PUSH2 0x279 PUSH2 0x36B CALLDATASIZE PUSH1 0x4 PUSH2 0x1BA2 JUMP JUMPDEST PUSH2 0xD15 JUMP JUMPDEST PUSH2 0x27F PUSH2 0x37E CALLDATASIZE PUSH1 0x4 PUSH2 0x1E13 JUMP JUMPDEST PUSH2 0xE96 JUMP JUMPDEST PUSH2 0x279 PUSH2 0xEB0 JUMP JUMPDEST PUSH2 0x27F PUSH1 0x8 SLOAD DUP2 JUMP JUMPDEST PUSH2 0x279 PUSH2 0x3A2 CALLDATASIZE PUSH1 0x4 PUSH2 0x1D95 JUMP JUMPDEST PUSH2 0xEC3 JUMP JUMPDEST PUSH1 0x6 SLOAD PUSH1 0x1 PUSH1 0x1 PUSH1 0xA0 SHL SUB AND PUSH2 0x318 JUMP JUMPDEST PUSH2 0x236 PUSH2 0x108F JUMP JUMPDEST PUSH2 0x256 PUSH2 0x3CE CALLDATASIZE PUSH1 0x4 PUSH2 0x1C68 JUMP JUMPDEST PUSH2 0x109E JUMP JUMPDEST PUSH2 0x3E6 PUSH2 0x3E1 CALLDATASIZE PUSH1 0x4 PUSH2 0x1BA2 JUMP JUMPDEST PUSH2 0x10AB JUMP JUMPDEST PUSH1 0x40 MLOAD PUSH2 0x225 SWAP10 SWAP9 SWAP8 SWAP7 SWAP6 SWAP5 SWAP4 SWAP3 SWAP2 SWAP1 PUSH2 0x1E2C JUMP JUMPDEST PUSH2 0x27F PUSH1 0xB SLOAD DUP2 JUMP JUMPDEST PUSH2 0x279 PUSH2 0x412 CALLDATASIZE PUSH1 0x4 PUSH2 0x1EB5 JUMP JUMPDEST PUSH2 0x1298 JUMP JUMPDEST PUSH2 0x27F PUSH1 0xF SLOAD DUP2 JUMP JUMPDEST PUSH2 0x27F PUSH2 0x42E CALLDATASIZE PUSH1 0x4 PUSH2 0x1EE3 JUMP JUMPDEST PUSH1 0x1 PUSH1 0x1 PUSH1 0xA0 SHL SUB SWAP2 DUP3 AND PUSH0 SWAP1 DUP2 MSTORE PUSH1 0x1 PUSH1 0x20 SWAP1 DUP2 MSTORE PUSH1 0x40 DUP1 DUP4 KECCAK256 SWAP4 SWAP1 SWAP5 AND DUP3 MSTORE SWAP2 SWAP1 SWAP2 MSTORE KECCAK256 SLOAD SWAP1 JUMP JUMPDEST PUSH2 0x279 PUSH2 0x466 CALLDATASIZE PUSH1 0x4 PUSH2 0x1BA2 JUMP JUMPDEST PUSH2 0x1423 JUMP JUMPDEST PUSH2 0x27F PUSH2 0x479 CALLDATASIZE PUSH1 0x4 PUSH2 0x1E13 JUMP JUMPDEST PUSH2 0x1570 JUMP JUMPDEST PUSH2 0x27F PUSH2 0x48C CALLDATASIZE PUSH1 0x4 PUSH2 0x1E13 JUMP JUMPDEST PUSH1 0x10 PUSH1 0x20 MSTORE PUSH0 SWAP1 DUP2 MSTORE PUSH1 0x40 SWAP1 KECCAK256 SLOAD DUP2 JUMP JUMPDEST PUSH2 0x279 PUSH2 0x15E0 JUMP JUMPDEST PUSH2 0x279 PUSH2 0x4B3 CALLDATASIZE PUSH1 0x4 PUSH2 0x1E13 JUMP JUMPDEST PUSH2 0x17FE JUMP JUMPDEST PUSH1 0xE PUSH1 0x20 MSTORE PUSH0 SWAP1 DUP2 MSTORE PUSH1 0x40 SWAP1 KECCAK256 DUP1 SLOAD DUP2 SWAP1 PUSH2 0x4D2 SWAP1 PUSH2 0x1F14 JUMP JUMPDEST DUP1 PUSH1 0x1F ADD PUSH1 0x20 DUP1 SWAP2 DIV MUL PUSH1 0x20 ADD PUSH1 0x40 MLOAD SWAP1 DUP2 ADD PUSH1 0x40 MSTORE DUP1 SWAP3 SWAP2 SWAP1 DUP2 DUP2 MSTORE PUSH1 0x20 ADD DUP3 DUP1 SLOAD PUSH2 0x4FE SWAP1 PUSH2 0x1F14 JUMP JUMPDEST DUP1 ISZERO PUSH2 0x549 JUMPI DUP1 PUSH1 0x1F LT PUSH2 0x520 JUMPI PUSH2 0x100 DUP1 DUP4 SLOAD DIV MUL DUP4 MSTORE SWAP2 PUSH1 0x20 ADD SWAP2 PUSH2 0x549 JUMP JUMPDEST DUP3 ADD SWAP2 SWAP1 PUSH0 MSTORE PUSH1 0x20 PUSH0 KECCAK256 SWAP1 JUMPDEST DUP2 SLOAD DUP2 MSTORE SWAP1 PUSH1 0x1 ADD SWAP1 PUSH1 0x20 ADD DUP1 DUP4 GT PUSH2 0x52C JUMPI DUP3 SWAP1 SUB PUSH1 0x1F AND DUP3 ADD SWAP2 JUMPDEST POP POP POP POP PUSH1 0x1 DUP4 ADD SLOAD PUSH1 0x2 DUP5 ADD SLOAD PUSH1 0x3 DUP6 ADD SLOAD PUSH1 0x4 SWAP1 SWAP6 ADD SLOAD SWAP4 SWAP5 SWAP2 SWAP4 SWAP1 SWAP3 POP PUSH1 0xFF AND DUP6 JUMP JUMPDEST PUSH1 0x60 PUSH1 0x3 DUP1 SLOAD PUSH2 0x57E SWAP1 PUSH2 0x1F14 JUMP JUMPDEST DUP1 PUSH1 0x1F ADD PUSH1 0x20 DUP1 SWAP2 DIV MUL PUSH1 0x20 ADD PUSH1 0x40 MLOAD SWAP1 DUP2 ADD PUSH1 0x40 MSTORE DUP1 SWAP3 SWAP2 SWAP1 DUP2 DUP2 MSTORE PUSH1 0x20 ADD DUP3 DUP1 SLOAD PUSH2 0x5AA SWAP1 PUSH2 0x1F14 JUMP JUMPDEST DUP1 ISZERO PUSH2 0x5F5 JUMPI DUP1 PUSH1 0x1F LT PUSH2 0x5CC JUMPI PUSH2 0x100 DUP1 DUP4 SLOAD DIV MUL DUP4 MSTORE SWAP2 PUSH1 0x20 ADD SWAP2 PUSH2 0x5F5 JUMP JUMPDEST DUP3 ADD SWAP2 SWAP1 PUSH0 MSTORE PUSH1 0x20 PUSH0 KECCAK256 SWAP1 JUMPDEST DUP2 SLOAD DUP2 MSTORE SWAP1 PUSH1 0x1 ADD SWAP1 PUSH1 0x20 ADD DUP1 DUP4 GT PUSH2 0x5D8 JUMPI DUP3 SWAP1 SUB PUSH1 0x1F AND DUP3 ADD SWAP2 JUMPDEST POP POP POP POP POP SWAP1 POP SWAP1 JUMP JUMPDEST PUSH0 CALLER PUSH2 0x60C DUP2 DUP6 DUP6 PUSH2 0x1838 JUMP JUMPDEST PUSH1 0x1 SWAP2 POP POP JUMPDEST SWAP3 SWAP2 POP POP JUMP JUMPDEST PUSH0 DUP2 DUP2 MSTORE PUSH1 0xE PUSH1 0x20 MSTORE PUSH1 0x40 SWAP1 KECCAK256 PUSH1 0x3 DUP2 ADD SLOAD TIMESTAMP LT ISZERO PUSH2 0x671 JUMPI PUSH1 0x40 MLOAD PUSH3 0x461BCD PUSH1 0xE5 SHL DUP2 MSTORE PUSH1 0x20 PUSH1 0x4 DUP3 ADD MSTORE PUSH1 0x10 PUSH1 0x24 DUP3 ADD MSTORE PUSH16 0x159BDD1A5B99C81B9BDD08195B991959 PUSH1 0x82 SHL PUSH1 0x44 DUP3 ADD MSTORE PUSH1 0x64 ADD JUMPDEST PUSH1 0x40 MLOAD DUP1 SWAP2 SUB SWAP1 REVERT JUMPDEST PUSH1 0x4 DUP2 ADD SLOAD PUSH1 0xFF AND ISZERO PUSH2 0x6B9 JUMPI PUSH1 0x40 MLOAD PUSH3 0x461BCD PUSH1 0xE5 SHL DUP2 MSTORE PUSH1 0x20 PUSH1 0x4 DUP3 ADD MSTORE PUSH1 0x10 PUSH1 0x24 DUP3 ADD MSTORE PUSH16 0x105B1C9958591E48195E1958DD5D1959 PUSH1 0x82 SHL PUSH1 0x44 DUP3 ADD MSTORE PUSH1 0x64 ADD PUSH2 0x668 JUMP JUMPDEST DUP1 PUSH1 0x2 ADD SLOAD DUP2 PUSH1 0x1 ADD SLOAD GT PUSH2 0x704 JUMPI PUSH1 0x40 MLOAD PUSH3 0x461BCD PUSH1 0xE5 SHL DUP2 MSTORE PUSH1 0x20 PUSH1 0x4 DUP3 ADD MSTORE PUSH1 0x11 PUSH1 0x24 DUP3 ADD MSTORE PUSH17 0x141C9BDC1BDCD85B081C995A9958DD1959 PUSH1 0x7A SHL PUSH1 0x44 DUP3 ADD MSTORE PUSH1 0x64 ADD PUSH2 0x668 JUMP JUMPDEST PUSH1 0x4 DUP2 ADD DUP1 SLOAD PUSH1 0xFF NOT AND PUSH1 0x1 OR SWAP1 SSTORE PUSH1 0x40 MLOAD DUP3 SWAP1 PUSH32 0x712AE1383F79AC853F8D882153778E0260EF8F03B504E2866E0593E04D2B291F SWAP1 PUSH0 SWAP1 LOG2 POP POP JUMP JUMPDEST PUSH2 0x749 PUSH2 0x184A JUMP JUMPDEST PUSH0 DUP5 DUP2 MSTORE PUSH1 0xD PUSH1 0x20 MSTORE PUSH1 0x40 SWAP1 KECCAK256 SLOAD PUSH1 0x1 PUSH1 0x1 PUSH1 0xA0 SHL SUB AND ISZERO PUSH2 0x79E JUMPI PUSH1 0x40 MLOAD PUSH3 0x461BCD PUSH1 0xE5 SHL DUP2 MSTORE PUSH1 0x20 PUSH1 0x4 DUP3 ADD MSTORE PUSH1 0xE PUSH1 0x24 DUP3 ADD MSTORE PUSH14 0x426F6F6B696E6720657869737473 PUSH1 0x90 SHL PUSH1 0x44 DUP3 ADD MSTORE PUSH1 0x64 ADD PUSH2 0x668 JUMP JUMPDEST PUSH0 PUSH2 0x7A8 CALLER PUSH2 0xE96 JUMP JUMPDEST GT PUSH2 0x7C5 JUMPI PUSH1 0x40 MLOAD PUSH3 0x461BCD PUSH1 0xE5 SHL DUP2 MSTORE PUSH1 0x4 ADD PUSH2 0x668 SWAP1 PUSH2 0x1F4C JUMP JUMPDEST DUP1 ISZERO PUSH2 0x89C JUMPI PUSH1 0x40 MLOAD PUSH4 0x23B872DD PUSH1 0xE0 SHL DUP2 MSTORE CALLER PUSH1 0x4 DUP3 ADD MSTORE ADDRESS PUSH1 0x24 DUP3 ADD MSTORE PUSH1 0x44 DUP2 ADD DUP3 SWAP1 MSTORE PUSH32 0x0 PUSH1 0x1 PUSH1 0x1 PUSH1 0xA0 SHL SUB AND SWAP1 PUSH4 0x23B872DD SWAP1 PUSH1 0x64 ADD PUSH1 0x20 PUSH1 0x40 MLOAD DUP1 DUP4 SUB DUP2 PUSH0 DUP8 GAS CALL ISZERO DUP1 ISZERO PUSH2 0x83B JUMPI RETURNDATASIZE PUSH0 DUP1 RETURNDATACOPY RETURNDATASIZE PUSH0 REVERT JUMPDEST POP POP POP POP PUSH1 0x40 MLOAD RETURNDATASIZE PUSH1 0x1F NOT PUSH1 0x1F DUP3 ADD AND DUP3 ADD DUP1 PUSH1 0x40 MSTORE POP DUP2 ADD SWAP1 PUSH2 0x85F SWAP2 SWAP1 PUSH2 0x1F75 JUMP JUMPDEST PUSH2 0x89C JUMPI PUSH1 0x40 MLOAD PUSH3 0x461BCD PUSH1 0xE5 SHL DUP2 MSTORE PUSH1 0x20 PUSH1 0x4 DUP3 ADD MSTORE PUSH1 0xE PUSH1 0x24 DUP3 ADD MSTORE PUSH14 0x11195C1BDCDA5D0819985A5B1959 PUSH1 0x92 SHL PUSH1 0x44 DUP3 ADD MSTORE PUSH1 0x64 ADD PUSH2 0x668 JUMP JUMPDEST PUSH1 0x40 DUP1 MLOAD PUSH2 0x120 DUP2 ADD DUP3 MSTORE CALLER DUP2 MSTORE PUSH1 0x20 DUP1 DUP3 ADD DUP7 DUP2 MSTORE DUP3 DUP5 ADD DUP7 DUP2 MSTORE PUSH1 0x60 DUP5 ADD DUP7 DUP2 MSTORE PUSH0 PUSH1 0x80 DUP7 ADD DUP2 DUP2 MSTORE PUSH1 0xA0 DUP8 ADD DUP3 DUP2 MSTORE DUP9 MLOAD DUP1 DUP9 ADD DUP11 MSTORE DUP4 DUP2 MSTORE PUSH1 0xC0 DUP10 ADD SWAP1 DUP2 MSTORE DUP10 MLOAD DUP1 DUP10 ADD DUP12 MSTORE DUP5 DUP2 MSTORE PUSH1 0xE0 DUP11 ADD MSTORE DUP10 MLOAD DUP1 DUP10 ADD DUP12 MSTORE DUP5 DUP2 MSTORE PUSH2 0x100 DUP1 DUP12 ADD SWAP2 SWAP1 SWAP2 MSTORE DUP15 DUP6 MSTORE PUSH1 0xD SWAP1 SWAP9 MSTORE SWAP9 SWAP1 SWAP3 KECCAK256 DUP8 MLOAD DUP2 SLOAD PUSH1 0x1 PUSH1 0x1 PUSH1 0xA0 SHL SUB NOT AND PUSH1 0x1 PUSH1 0x1 PUSH1 0xA0 SHL SUB SWAP1 SWAP2 AND OR DUP2 SSTORE SWAP5 MLOAD PUSH1 0x1 DUP7 ADD SSTORE SWAP3 MLOAD PUSH1 0x2 DUP6 ADD SSTORE SWAP1 MLOAD PUSH1 0x3 DUP5 ADD SSTORE SWAP1 MLOAD PUSH1 0x4 DUP4 ADD DUP1 SLOAD SWAP3 MLOAD PUSH2 0xFFFF NOT SWAP1 SWAP4 AND SWAP2 ISZERO ISZERO PUSH2 0xFF00 NOT AND SWAP2 SWAP1 SWAP2 OR SWAP2 ISZERO ISZERO SWAP1 SWAP4 MUL OR SWAP1 SWAP2 SSTORE SWAP2 MLOAD SWAP1 SWAP2 SWAP1 PUSH1 0x5 DUP3 ADD SWAP1 PUSH2 0x97A SWAP1 DUP3 PUSH2 0x1FDD JUMP JUMPDEST POP PUSH1 0xE0 DUP3 ADD MLOAD PUSH1 0x6 DUP3 ADD SWAP1 PUSH2 0x98F SWAP1 DUP3 PUSH2 0x1FDD JUMP JUMPDEST POP PUSH2 0x100 DUP3 ADD MLOAD PUSH1 0x7 DUP3 ADD SWAP1 PUSH2 0x9A5 SWAP1 DUP3 PUSH2 0x1FDD JUMP JUMPDEST POP POP PUSH1 0x40 DUP1 MLOAD DUP6 DUP2 MSTORE PUSH1 0x20 DUP2 ADD DUP6 SWAP1 MSTORE CALLER SWAP3 POP DUP7 SWAP2 PUSH32 0x9CA04EC3F47E447405BE46C9F47C0FF120C4FB91E497488D3423AA773C6F2389 SWAP2 ADD PUSH1 0x40 MLOAD DUP1 SWAP2 SUB SWAP1 LOG3 DUP1 ISZERO PUSH2 0xA26 JUMPI DUP4 PUSH32 0x619BF0AC7A0C810932BA93ED5253879CFB7E9E28E88EE8113C3C739B9FB55B34 DUP3 PUSH1 0x40 MLOAD PUSH2 0xA1D SWAP2 DUP2 MSTORE PUSH1 0x20 ADD SWAP1 JUMP JUMPDEST PUSH1 0x40 MLOAD DUP1 SWAP2 SUB SWAP1 LOG2 JUMPDEST PUSH2 0xA30 PUSH1 0x1 PUSH1 0x5 SSTORE JUMP JUMPDEST POP POP POP POP JUMP JUMPDEST PUSH0 CALLER PUSH2 0xA43 DUP6 DUP3 DUP6 PUSH2 0x1874 JUMP JUMPDEST PUSH2 0xA4E DUP6 DUP6 DUP6 PUSH2 0x18EA JUMP JUMPDEST POP PUSH1 0x1 SWAP5 SWAP4 POP POP POP POP JUMP JUMPDEST PUSH0 DUP3 DUP2 MSTORE PUSH1 0xD PUSH1 0x20 MSTORE PUSH1 0x40 DUP2 KECCAK256 SWAP1 PUSH2 0xA70 CALLER PUSH2 0xE96 JUMP JUMPDEST GT PUSH2 0xA8D JUMPI PUSH1 0x40 MLOAD PUSH3 0x461BCD PUSH1 0xE5 SHL DUP2 MSTORE PUSH1 0x4 ADD PUSH2 0x668 SWAP1 PUSH2 0x1F4C JUMP JUMPDEST PUSH1 0x7 DUP2 ADD PUSH2 0xA9B DUP4 DUP3 PUSH2 0x1FDD JUMP JUMPDEST POP CALLER PUSH1 0x1 PUSH1 0x1 PUSH1 0xA0 SHL SUB AND DUP4 PUSH32 0x516EFB158D4000063EA8A498B3BDA171AA4C5EB6739BFFE81ED8F0742D564EF DUP5 PUSH1 0x40 MLOAD PUSH2 0xAD6 SWAP2 SWAP1 PUSH2 0x1C34 JUMP JUMPDEST PUSH1 0x40 MLOAD DUP1 SWAP2 SUB SWAP1 LOG3 POP POP POP JUMP JUMPDEST PUSH0 DUP3 DUP2 MSTORE PUSH1 0xD PUSH1 0x20 MSTORE PUSH1 0x40 SWAP1 KECCAK256 DUP1 SLOAD PUSH1 0x1 PUSH1 0x1 PUSH1 0xA0 SHL SUB AND CALLER EQ PUSH2 0xB3D JUMPI PUSH1 0x40 MLOAD PUSH3 0x461BCD PUSH1 0xE5 SHL DUP2 MSTORE PUSH1 0x20 PUSH1 0x4 DUP3 ADD MSTORE PUSH1 0x11 PUSH1 0x24 DUP3 ADD MSTORE PUSH17 0x2737BA103137B7B5B4B7339037BBB732B9 PUSH1 0x79 SHL PUSH1 0x44 DUP3 ADD MSTORE PUSH1 0x64 ADD PUSH2 0x668 JUMP JUMPDEST PUSH1 0x4 DUP2 ADD SLOAD PUSH1 0xFF AND ISZERO PUSH2 0xB83 JUMPI PUSH1 0x40 MLOAD PUSH3 0x461BCD PUSH1 0xE5 SHL DUP2 MSTORE PUSH1 0x20 PUSH1 0x4 DUP3 ADD MSTORE PUSH1 0xE PUSH1 0x24 DUP3 ADD MSTORE PUSH14 0x416C726561647920616374697665 PUSH1 0x90 SHL PUSH1 0x44 DUP3 ADD MSTORE PUSH1 0x64 ADD PUSH2 0x668 JUMP JUMPDEST PUSH1 0x4 DUP2 ADD DUP1 SLOAD PUSH1 0xFF NOT AND PUSH1 0x1 OR SWAP1 SSTORE PUSH1 0x5 DUP2 ADD PUSH2 0xBA0 DUP4 DUP3 PUSH2 0x1FDD JUMP JUMPDEST POP DUP3 PUSH32 0xB35A2F9B2ED656104C5312246F0AB185676BE2BE2B0A0E43098D416EE648E140 DUP4 PUSH1 0x40 MLOAD PUSH2 0xBD1 SWAP2 SWAP1 PUSH2 0x1C34 JUMP JUMPDEST PUSH1 0x40 MLOAD DUP1 SWAP2 SUB SWAP1 LOG2 POP POP POP JUMP JUMPDEST PUSH0 DUP1 PUSH2 0xBE9 CALLER PUSH2 0xE96 JUMP JUMPDEST GT PUSH2 0xC06 JUMPI PUSH1 0x40 MLOAD PUSH3 0x461BCD PUSH1 0xE5 SHL DUP2 MSTORE PUSH1 0x4 ADD PUSH2 0x668 SWAP1 PUSH2 0x1F4C JUMP JUMPDEST PUSH1 0xF DUP1 SLOAD PUSH0 SWAP2 DUP3 PUSH2 0xC16 DUP4 PUSH2 0x20AD JUMP JUMPDEST SWAP1 SWAP2 SSTORE POP PUSH0 DUP2 DUP2 MSTORE PUSH1 0xE PUSH1 0x20 MSTORE PUSH1 0x40 SWAP1 KECCAK256 SWAP1 SWAP2 POP DUP1 PUSH2 0xC35 DUP6 DUP3 PUSH2 0x1FDD JUMP JUMPDEST POP PUSH2 0xC43 TIMESTAMP PUSH3 0x93A80 PUSH2 0x20C5 JUMP JUMPDEST PUSH1 0x3 DUP3 ADD SSTORE PUSH1 0x40 MLOAD DUP3 SWAP1 PUSH32 0x9C770C289AB5BF7E57CB1D23C8CEAE993AEA46EB64847072FD3D78CA60D3E432 SWAP1 PUSH2 0xC7A SWAP1 DUP8 SWAP1 PUSH2 0x1C34 JUMP JUMPDEST PUSH1 0x40 MLOAD DUP1 SWAP2 SUB SWAP1 LOG2 POP SWAP3 SWAP2 POP POP JUMP JUMPDEST PUSH1 0x7 DUP1 SLOAD PUSH2 0xC96 SWAP1 PUSH2 0x1F14 JUMP JUMPDEST DUP1 PUSH1 0x1F ADD PUSH1 0x20 DUP1 SWAP2 DIV MUL PUSH1 0x20 ADD PUSH1 0x40 MLOAD SWAP1 DUP2 ADD PUSH1 0x40 MSTORE DUP1 SWAP3 SWAP2 SWAP1 DUP2 DUP2 MSTORE PUSH1 0x20 ADD DUP3 DUP1 SLOAD PUSH2 0xCC2 SWAP1 PUSH2 0x1F14 JUMP JUMPDEST DUP1 ISZERO PUSH2 0xD0D JUMPI DUP1 PUSH1 0x1F LT PUSH2 0xCE4 JUMPI PUSH2 0x100 DUP1 DUP4 SLOAD DIV MUL DUP4 MSTORE SWAP2 PUSH1 0x20 ADD SWAP2 PUSH2 0xD0D JUMP JUMPDEST DUP3 ADD SWAP2 SWAP1 PUSH0 MSTORE PUSH1 0x20 PUSH0 KECCAK256 SWAP1 JUMPDEST DUP2 SLOAD DUP2 MSTORE SWAP1 PUSH1 0x1 ADD SWAP1 PUSH1 0x20 ADD DUP1 DUP4 GT PUSH2 0xCF0 JUMPI DUP3 SWAP1 SUB PUSH1 0x1F AND DUP3 ADD SWAP2 JUMPDEST POP POP POP POP POP DUP2 JUMP JUMPDEST PUSH2 0xD1D PUSH2 0x1947 JUMP JUMPDEST PUSH2 0xD25 PUSH2 0x184A JUMP JUMPDEST PUSH1 0x40 MLOAD PUSH4 0x23B872DD PUSH1 0xE0 SHL DUP2 MSTORE CALLER PUSH1 0x4 DUP3 ADD MSTORE ADDRESS PUSH1 0x24 DUP3 ADD MSTORE PUSH1 0x44 DUP2 ADD DUP3 SWAP1 MSTORE PUSH32 0x0 PUSH1 0x1 PUSH1 0x1 PUSH1 0xA0 SHL SUB AND SWAP1 PUSH4 0x23B872DD SWAP1 PUSH1 0x64 ADD PUSH1 0x20 PUSH1 0x40 MLOAD DUP1 DUP4 SUB DUP2 PUSH0 DUP8 GAS CALL ISZERO DUP1 ISZERO PUSH2 0xD95 JUMPI RETURNDATASIZE PUSH0 DUP1 RETURNDATACOPY RETURNDATASIZE PUSH0 REVERT JUMPDEST POP POP POP POP PUSH1 0x40 MLOAD RETURNDATASIZE PUSH1 0x1F NOT PUSH1 0x1F DUP3 ADD AND DUP3 ADD DUP1 PUSH1 0x40 MSTORE POP DUP2 ADD SWAP1 PUSH2 0xDB9 SWAP2 SWAP1 PUSH2 0x1F75 JUMP JUMPDEST PUSH2 0xDF7 JUMPI PUSH1 0x40 MLOAD PUSH3 0x461BCD PUSH1 0xE5 SHL DUP2 MSTORE PUSH1 0x20 PUSH1 0x4 DUP3 ADD MSTORE PUSH1 0xF PUSH1 0x24 DUP3 ADD MSTORE PUSH15 0x151C985B9CD9995C8819985A5B1959 PUSH1 0x8A SHL PUSH1 0x44 DUP3 ADD MSTORE PUSH1 0x64 ADD PUSH2 0x668 JUMP JUMPDEST PUSH0 PUSH2 0x2710 PUSH1 0x9 SLOAD DUP4 PUSH2 0xE09 SWAP2 SWAP1 PUSH2 0x20D8 JUMP JUMPDEST PUSH2 0xE13 SWAP2 SWAP1 PUSH2 0x20EF JUMP JUMPDEST SWAP1 POP DUP1 PUSH1 0xA PUSH0 DUP3 DUP3 SLOAD PUSH2 0xE26 SWAP2 SWAP1 PUSH2 0x20C5 JUMP JUMPDEST SWAP1 SWAP2 SSTORE POP PUSH0 SWAP1 POP PUSH2 0xE37 DUP3 DUP5 PUSH2 0x210E JUMP JUMPDEST SWAP1 POP DUP1 PUSH1 0xB PUSH0 DUP3 DUP3 SLOAD PUSH2 0xE4A SWAP2 SWAP1 PUSH2 0x20C5 JUMP JUMPDEST SWAP1 SWAP2 SSTORE POP POP PUSH1 0x40 DUP1 MLOAD DUP3 DUP2 MSTORE TIMESTAMP PUSH1 0x20 DUP3 ADD MSTORE PUSH32 0x2703ACE359E89CB73A330208D4F9B64E82F078A6BEBF4E8CC58A549FC64CFD21 SWAP2 ADD PUSH1 0x40 MLOAD DUP1 SWAP2 SUB SWAP1 LOG1 POP POP PUSH2 0xE93 PUSH1 0x1 PUSH1 0x5 SSTORE JUMP JUMPDEST POP JUMP JUMPDEST PUSH1 0x1 PUSH1 0x1 PUSH1 0xA0 SHL SUB AND PUSH0 SWAP1 DUP2 MSTORE PUSH1 0x20 DUP2 SWAP1 MSTORE PUSH1 0x40 SWAP1 KECCAK256 SLOAD SWAP1 JUMP JUMPDEST PUSH2 0xEB8 PUSH2 0x1947 JUMP JUMPDEST PUSH2 0xEC1 PUSH0 PUSH2 0x1974 JUMP JUMPDEST JUMP JUMPDEST PUSH0 DUP3 DUP2 MSTORE PUSH1 0xD PUSH1 0x20 MSTORE PUSH1 0x40 SWAP1 KECCAK256 DUP1 SLOAD PUSH1 0x1 PUSH1 0x1 PUSH1 0xA0 SHL SUB AND CALLER EQ PUSH2 0xF1D JUMPI PUSH1 0x40 MLOAD PUSH3 0x461BCD PUSH1 0xE5 SHL DUP2 MSTORE PUSH1 0x20 PUSH1 0x4 DUP3 ADD MSTORE PUSH1 0x11 PUSH1 0x24 DUP3 ADD MSTORE PUSH17 0x2737BA103137B7B5B4B7339037BBB732B9 PUSH1 0x79 SHL PUSH1 0x44 DUP3 ADD MSTORE PUSH1 0x64 ADD PUSH2 0x668 JUMP JUMPDEST PUSH1 0x4 DUP2 ADD SLOAD PUSH1 0xFF AND PUSH2 0xF5E JUMPI PUSH1 0x40 MLOAD PUSH3 0x461BCD PUSH1 0xE5 SHL DUP2 MSTORE PUSH1 0x20 PUSH1 0x4 DUP3 ADD MSTORE PUSH1 0xA PUSH1 0x24 DUP3 ADD MSTORE PUSH10 0x4E6F7420616374697665 PUSH1 0xB0 SHL PUSH1 0x44 DUP3 ADD MSTORE PUSH1 0x64 ADD PUSH2 0x668 JUMP JUMPDEST PUSH1 0x4 DUP2 ADD DUP1 SLOAD PUSH2 0xFFFF NOT AND PUSH2 0x100 OR SWAP1 SSTORE PUSH1 0x6 DUP2 ADD PUSH2 0xF7D DUP4 DUP3 PUSH2 0x1FDD JUMP JUMPDEST POP PUSH1 0x3 DUP2 ADD SLOAD ISZERO PUSH2 0x105F JUMPI PUSH1 0x3 DUP2 ADD SLOAD PUSH1 0x40 MLOAD PUSH4 0xA9059CBB PUSH1 0xE0 SHL DUP2 MSTORE CALLER PUSH1 0x4 DUP3 ADD MSTORE PUSH1 0x24 DUP2 ADD SWAP2 SWAP1 SWAP2 MSTORE PUSH32 0x0 PUSH1 0x1 PUSH1 0x1 PUSH1 0xA0 SHL SUB AND SWAP1 PUSH4 0xA9059CBB SWAP1 PUSH1 0x44 ADD PUSH1 0x20 PUSH1 0x40 MLOAD DUP1 DUP4 SUB DUP2 PUSH0 DUP8 GAS CALL ISZERO DUP1 ISZERO PUSH2 0xFF8 JUMPI RETURNDATASIZE PUSH0 DUP1 RETURNDATACOPY RETURNDATASIZE PUSH0 REVERT JUMPDEST POP POP POP POP PUSH1 0x40 MLOAD RETURNDATASIZE PUSH1 0x1F NOT PUSH1 0x1F DUP3 ADD AND DUP3 ADD DUP1 PUSH1 0x40 MSTORE POP DUP2 ADD SWAP1 PUSH2 0x101C SWAP2 SWAP1 PUSH2 0x1F75 JUMP JUMPDEST PUSH2 0x1058 JUMPI PUSH1 0x40 MLOAD PUSH3 0x461BCD PUSH1 0xE5 SHL DUP2 MSTORE PUSH1 0x20 PUSH1 0x4 DUP3 ADD MSTORE PUSH1 0xD PUSH1 0x24 DUP3 ADD MSTORE PUSH13 0x1499599D5B990819985A5B1959 PUSH1 0x9A SHL PUSH1 0x44 DUP3 ADD MSTORE PUSH1 0x64 ADD PUSH2 0x668 JUMP JUMPDEST PUSH0 PUSH1 0x3 DUP3 ADD SSTORE JUMPDEST DUP3 PUSH32 0xD4B084565278747E30B0582DF935125F87310EDCF3DF8C15CD294975FF09E725 DUP4 PUSH1 0x40 MLOAD PUSH2 0xBD1 SWAP2 SWAP1 PUSH2 0x1C34 JUMP JUMPDEST PUSH1 0x60 PUSH1 0x4 DUP1 SLOAD PUSH2 0x57E SWAP1 PUSH2 0x1F14 JUMP JUMPDEST PUSH0 CALLER PUSH2 0x60C DUP2 DUP6 DUP6 PUSH2 0x18EA JUMP JUMPDEST PUSH1 0xD PUSH1 0x20 MSTORE PUSH0 SWAP1 DUP2 MSTORE PUSH1 0x40 SWAP1 KECCAK256 DUP1 SLOAD PUSH1 0x1 DUP3 ADD SLOAD PUSH1 0x2 DUP4 ADD SLOAD PUSH1 0x3 DUP5 ADD SLOAD PUSH1 0x4 DUP6 ADD SLOAD PUSH1 0x5 DUP7 ADD DUP1 SLOAD PUSH1 0x1 PUSH1 0x1 PUSH1 0xA0 SHL SUB SWAP1 SWAP7 AND SWAP7 SWAP5 SWAP6 SWAP4 SWAP5 SWAP3 SWAP4 PUSH1 0xFF DUP1 DUP5 AND SWAP5 PUSH2 0x100 SWAP1 SWAP5 DIV AND SWAP3 SWAP2 SWAP1 PUSH2 0x10FF SWAP1 PUSH2 0x1F14 JUMP JUMPDEST DUP1 PUSH1 0x1F ADD PUSH1 0x20 DUP1 SWAP2 DIV MUL PUSH1 0x20 ADD PUSH1 0x40 MLOAD SWAP1 DUP2 ADD PUSH1 0x40 MSTORE DUP1 SWAP3 SWAP2 SWAP1 DUP2 DUP2 MSTORE PUSH1 0x20 ADD DUP3 DUP1 SLOAD PUSH2 0x112B SWAP1 PUSH2 0x1F14 JUMP JUMPDEST DUP1 ISZERO PUSH2 0x1176 JUMPI DUP1 PUSH1 0x1F LT PUSH2 0x114D JUMPI PUSH2 0x100 DUP1 DUP4 SLOAD DIV MUL DUP4 MSTORE SWAP2 PUSH1 0x20 ADD SWAP2 PUSH2 0x1176 JUMP JUMPDEST DUP3 ADD SWAP2 SWAP1 PUSH0 MSTORE PUSH1 0x20 PUSH0 KECCAK256 SWAP1 JUMPDEST DUP2 SLOAD DUP2 MSTORE SWAP1 PUSH1 0x1 ADD SWAP1 PUSH1 0x20 ADD DUP1 DUP4 GT PUSH2 0x1159 JUMPI DUP3 SWAP1 SUB PUSH1 0x1F AND DUP3 ADD SWAP2 JUMPDEST POP POP POP POP POP SWAP1 DUP1 PUSH1 0x6 ADD DUP1 SLOAD PUSH2 0x118B SWAP1 PUSH2 0x1F14 JUMP JUMPDEST DUP1 PUSH1 0x1F ADD PUSH1 0x20 DUP1 SWAP2 DIV MUL PUSH1 0x20 ADD PUSH1 0x40 MLOAD SWAP1 DUP2 ADD PUSH1 0x40 MSTORE DUP1 SWAP3 SWAP2 SWAP1 DUP2 DUP2 MSTORE PUSH1 0x20 ADD DUP3 DUP1 SLOAD PUSH2 0x11B7 SWAP1 PUSH2 0x1F14 JUMP JUMPDEST DUP1 ISZERO PUSH2 0x1202 JUMPI DUP1 PUSH1 0x1F LT PUSH2 0x11D9 JUMPI PUSH2 0x100 DUP1 DUP4 SLOAD DIV MUL DUP4 MSTORE SWAP2 PUSH1 0x20 ADD SWAP2 PUSH2 0x1202 JUMP JUMPDEST DUP3 ADD SWAP2 SWAP1 PUSH0 MSTORE PUSH1 0x20 PUSH0 KECCAK256 SWAP1 JUMPDEST DUP2 SLOAD DUP2 MSTORE SWAP1 PUSH1 0x1 ADD SWAP1 PUSH1 0x20 ADD DUP1 DUP4 GT PUSH2 0x11E5 JUMPI DUP3 SWAP1 SUB PUSH1 0x1F AND DUP3 ADD SWAP2 JUMPDEST POP POP POP POP POP SWAP1 DUP1 PUSH1 0x7 ADD DUP1 SLOAD PUSH2 0x1217 SWAP1 PUSH2 0x1F14 JUMP JUMPDEST DUP1 PUSH1 0x1F ADD PUSH1 0x20 DUP1 SWAP2 DIV MUL PUSH1 0x20 ADD PUSH1 0x40 MLOAD SWAP1 DUP2 ADD PUSH1 0x40 MSTORE DUP1 SWAP3 SWAP2 SWAP1 DUP2 DUP2 MSTORE PUSH1 0x20 ADD DUP3 DUP1 SLOAD PUSH2 0x1243 SWAP1 PUSH2 0x1F14 JUMP JUMPDEST DUP1 ISZERO PUSH2 0x128E JUMPI DUP1 PUSH1 0x1F LT PUSH2 0x1265 JUMPI PUSH2 0x100 DUP1 DUP4 SLOAD DIV MUL DUP4 MSTORE SWAP2 PUSH1 0x20 ADD SWAP2 PUSH2 0x128E JUMP JUMPDEST DUP3 ADD SWAP2 SWAP1 PUSH0 MSTORE PUSH1 0x20 PUSH0 KECCAK256 SWAP1 JUMPDEST DUP2 SLOAD DUP2 MSTORE SWAP1 PUSH1 0x1 ADD SWAP1 PUSH1 0x20 ADD DUP1 DUP4 GT PUSH2 0x1271 JUMPI DUP3 SWAP1 SUB PUSH1 0x1F AND DUP3 ADD SWAP2 JUMPDEST POP POP POP POP POP SWAP1 POP DUP10 JUMP JUMPDEST PUSH0 DUP3 DUP2 MSTORE PUSH1 0xE PUSH1 0x20 MSTORE PUSH1 0x40 SWAP1 KECCAK256 PUSH1 0x3 DUP2 ADD SLOAD TIMESTAMP LT PUSH2 0x12E7 JUMPI PUSH1 0x40 MLOAD PUSH3 0x461BCD PUSH1 0xE5 SHL DUP2 MSTORE PUSH1 0x20 PUSH1 0x4 DUP3 ADD MSTORE PUSH1 0xC PUSH1 0x24 DUP3 ADD MSTORE PUSH12 0x159BDD1A5B99C8195B991959 PUSH1 0xA2 SHL PUSH1 0x44 DUP3 ADD MSTORE PUSH1 0x64 ADD PUSH2 0x668 JUMP JUMPDEST CALLER PUSH0 SWAP1 DUP2 MSTORE PUSH1 0x5 DUP3 ADD PUSH1 0x20 MSTORE PUSH1 0x40 SWAP1 KECCAK256 SLOAD PUSH1 0xFF AND ISZERO PUSH2 0x1338 JUMPI PUSH1 0x40 MLOAD PUSH3 0x461BCD PUSH1 0xE5 SHL DUP2 MSTORE PUSH1 0x20 PUSH1 0x4 DUP3 ADD MSTORE PUSH1 0xD PUSH1 0x24 DUP3 ADD MSTORE PUSH13 0x105B1C9958591E481D9BDD1959 PUSH1 0x9A SHL PUSH1 0x44 DUP3 ADD MSTORE PUSH1 0x64 ADD PUSH2 0x668 JUMP JUMPDEST PUSH0 PUSH2 0x1342 CALLER PUSH2 0xE96 JUMP JUMPDEST SWAP1 POP PUSH0 DUP2 GT PUSH2 0x1385 JUMPI PUSH1 0x40 MLOAD PUSH3 0x461BCD PUSH1 0xE5 SHL DUP2 MSTORE PUSH1 0x20 PUSH1 0x4 DUP3 ADD MSTORE PUSH1 0xF PUSH1 0x24 DUP3 ADD MSTORE PUSH15 0x2737903B37BA34B733903837BBB2B9 PUSH1 0x89 SHL PUSH1 0x44 DUP3 ADD MSTORE PUSH1 0x64 ADD PUSH2 0x668 JUMP JUMPDEST CALLER PUSH0 SWAP1 DUP2 MSTORE PUSH1 0x5 DUP4 ADD PUSH1 0x20 MSTORE PUSH1 0x40 SWAP1 KECCAK256 DUP1 SLOAD PUSH1 0xFF NOT AND PUSH1 0x1 OR SWAP1 SSTORE DUP3 ISZERO PUSH2 0x13C4 JUMPI DUP1 DUP3 PUSH1 0x1 ADD PUSH0 DUP3 DUP3 SLOAD PUSH2 0x13B9 SWAP2 SWAP1 PUSH2 0x20C5 JUMP JUMPDEST SWAP1 SWAP2 SSTORE POP PUSH2 0x13DD SWAP1 POP JUMP JUMPDEST DUP1 DUP3 PUSH1 0x2 ADD PUSH0 DUP3 DUP3 SLOAD PUSH2 0x13D7 SWAP2 SWAP1 PUSH2 0x20C5 JUMP JUMPDEST SWAP1 SWAP2 SSTORE POP POP JUMPDEST PUSH1 0x40 DUP1 MLOAD DUP5 ISZERO ISZERO DUP2 MSTORE PUSH1 0x20 DUP2 ADD DUP4 SWAP1 MSTORE CALLER SWAP2 DUP7 SWAP2 PUSH32 0x7C2DE587C00D75474A0C6C6FA96FD3B45DC974CD4E8A75F712BB84C950DCE1B5 SWAP2 ADD JUMPDEST PUSH1 0x40 MLOAD DUP1 SWAP2 SUB SWAP1 LOG3 POP POP POP POP JUMP JUMPDEST PUSH2 0x142B PUSH2 0x184A JUMP JUMPDEST PUSH0 PUSH1 0x8 SLOAD DUP3 PUSH2 0x143A SWAP2 SWAP1 PUSH2 0x20D8 JUMP JUMPDEST PUSH1 0x40 MLOAD PUSH4 0x23B872DD PUSH1 0xE0 SHL DUP2 MSTORE CALLER PUSH1 0x4 DUP3 ADD MSTORE ADDRESS PUSH1 0x24 DUP3 ADD MSTORE PUSH1 0x44 DUP2 ADD DUP3 SWAP1 MSTORE SWAP1 SWAP2 POP PUSH32 0x0 PUSH1 0x1 PUSH1 0x1 PUSH1 0xA0 SHL SUB AND SWAP1 PUSH4 0x23B872DD SWAP1 PUSH1 0x64 ADD PUSH1 0x20 PUSH1 0x40 MLOAD DUP1 DUP4 SUB DUP2 PUSH0 DUP8 GAS CALL ISZERO DUP1 ISZERO PUSH2 0x14AD JUMPI RETURNDATASIZE PUSH0 DUP1 RETURNDATACOPY RETURNDATASIZE PUSH0 REVERT JUMPDEST POP POP POP POP PUSH1 0x40 MLOAD RETURNDATASIZE PUSH1 0x1F NOT PUSH1 0x1F DUP3 ADD AND DUP3 ADD DUP1 PUSH1 0x40 MSTORE POP DUP2 ADD SWAP1 PUSH2 0x14D1 SWAP2 SWAP1 PUSH2 0x1F75 JUMP JUMPDEST PUSH2 0x150E JUMPI PUSH1 0x40 MLOAD PUSH3 0x461BCD PUSH1 0xE5 SHL DUP2 MSTORE PUSH1 0x20 PUSH1 0x4 DUP3 ADD MSTORE PUSH1 0xE PUSH1 0x24 DUP3 ADD MSTORE PUSH14 0x14185E5B595B9D0819985A5B1959 PUSH1 0x92 SHL PUSH1 0x44 DUP3 ADD MSTORE PUSH1 0x64 ADD PUSH2 0x668 JUMP JUMPDEST PUSH2 0x152A PUSH2 0x1523 PUSH1 0x6 SLOAD PUSH1 0x1 PUSH1 0x1 PUSH1 0xA0 SHL SUB AND SWAP1 JUMP JUMPDEST CALLER DUP5 PUSH2 0x18EA JUMP JUMPDEST PUSH1 0x40 DUP1 MLOAD DUP4 DUP2 MSTORE PUSH1 0x20 DUP2 ADD DUP4 SWAP1 MSTORE CALLER SWAP2 PUSH32 0x630B54F21D1C5AE41C4633AD96E8C15CE15665365EDED6A38476FFA71C8ACE6C SWAP2 ADD PUSH1 0x40 MLOAD DUP1 SWAP2 SUB SWAP1 LOG2 POP PUSH2 0xE93 PUSH1 0x1 PUSH1 0x5 SSTORE JUMP JUMPDEST PUSH0 DUP1 PUSH2 0x157B DUP4 PUSH2 0xE96 JUMP JUMPDEST SWAP1 POP DUP1 PUSH0 SUB PUSH2 0x158C JUMPI POP PUSH0 SWAP3 SWAP2 POP POP JUMP JUMPDEST PUSH0 PUSH2 0x1596 PUSH1 0x2 SLOAD SWAP1 JUMP JUMPDEST SWAP1 POP PUSH0 DUP2 DUP4 PUSH1 0xB SLOAD PUSH2 0x15A8 SWAP2 SWAP1 PUSH2 0x20D8 JUMP JUMPDEST PUSH2 0x15B2 SWAP2 SWAP1 PUSH2 0x20EF JUMP JUMPDEST PUSH1 0x1 PUSH1 0x1 PUSH1 0xA0 SHL SUB DUP7 AND PUSH0 SWAP1 DUP2 MSTORE PUSH1 0x10 PUSH1 0x20 MSTORE PUSH1 0x40 SWAP1 KECCAK256 SLOAD SWAP1 SWAP2 POP PUSH2 0x15D7 SWAP1 DUP3 PUSH2 0x210E JUMP JUMPDEST SWAP6 SWAP5 POP POP POP POP POP JUMP JUMPDEST PUSH2 0x15E8 PUSH2 0x184A JUMP JUMPDEST PUSH0 PUSH2 0x15F2 CALLER PUSH2 0xE96 JUMP JUMPDEST SWAP1 POP PUSH0 DUP2 GT PUSH2 0x162F JUMPI PUSH1 0x40 MLOAD PUSH3 0x461BCD PUSH1 0xE5 SHL DUP2 MSTORE PUSH1 0x20 PUSH1 0x4 DUP3 ADD MSTORE PUSH1 0x9 PUSH1 0x24 DUP3 ADD MSTORE PUSH9 0x4E6F20736861726573 PUSH1 0xB8 SHL PUSH1 0x44 DUP3 ADD MSTORE PUSH1 0x64 ADD PUSH2 0x668 JUMP JUMPDEST PUSH0 PUSH2 0x1639 PUSH1 0x2 SLOAD SWAP1 JUMP JUMPDEST SWAP1 POP PUSH0 DUP2 DUP4 PUSH1 0xB SLOAD PUSH2 0x164B SWAP2 SWAP1 PUSH2 0x20D8 JUMP JUMPDEST PUSH2 0x1655 SWAP2 SWAP1 PUSH2 0x20EF JUMP JUMPDEST CALLER PUSH0 SWAP1 DUP2 MSTORE PUSH1 0x10 PUSH1 0x20 MSTORE PUSH1 0x40 DUP2 KECCAK256 SLOAD SWAP2 SWAP3 POP SWAP1 PUSH2 0x1672 SWAP1 DUP4 PUSH2 0x210E JUMP JUMPDEST SWAP1 POP PUSH0 DUP2 GT PUSH2 0x16B6 JUMPI PUSH1 0x40 MLOAD PUSH3 0x461BCD PUSH1 0xE5 SHL DUP2 MSTORE PUSH1 0x20 PUSH1 0x4 DUP3 ADD MSTORE PUSH1 0x10 PUSH1 0x24 DUP3 ADD MSTORE PUSH16 0x4E6F7468696E6720746F20636C61696D PUSH1 0x80 SHL PUSH1 0x44 DUP3 ADD MSTORE PUSH1 0x64 ADD PUSH2 0x668 JUMP JUMPDEST CALLER PUSH0 SWAP1 DUP2 MSTORE PUSH1 0x10 PUSH1 0x20 MSTORE PUSH1 0x40 DUP2 KECCAK256 DUP1 SLOAD DUP4 SWAP3 SWAP1 PUSH2 0x16D4 SWAP1 DUP5 SWAP1 PUSH2 0x20C5 JUMP JUMPDEST SWAP3 POP POP DUP2 SWAP1 SSTORE POP DUP1 PUSH1 0xC PUSH0 DUP3 DUP3 SLOAD PUSH2 0x16EC SWAP2 SWAP1 PUSH2 0x20C5 JUMP JUMPDEST SWAP1 SWAP2 SSTORE POP POP PUSH1 0x40 MLOAD PUSH4 0xA9059CBB PUSH1 0xE0 SHL DUP2 MSTORE CALLER PUSH1 0x4 DUP3 ADD MSTORE PUSH1 0x24 DUP2 ADD DUP3 SWAP1 MSTORE PUSH32 0x0 PUSH1 0x1 PUSH1 0x1 PUSH1 0xA0 SHL SUB AND SWAP1 PUSH4 0xA9059CBB SWAP1 PUSH1 0x44 ADD PUSH1 0x20 PUSH1 0x40 MLOAD DUP1 DUP4 SUB DUP2 PUSH0 DUP8 GAS CALL ISZERO DUP1 ISZERO PUSH2 0x175B JUMPI RETURNDATASIZE PUSH0 DUP1 RETURNDATACOPY RETURNDATASIZE PUSH0 REVERT JUMPDEST POP POP POP POP PUSH1 0x40 MLOAD RETURNDATASIZE PUSH1 0x1F NOT PUSH1 0x1F DUP3 ADD AND DUP3 ADD DUP1 PUSH1 0x40 MSTORE POP DUP2 ADD SWAP1 PUSH2 0x177F SWAP2 SWAP1 PUSH2 0x1F75 JUMP JUMPDEST PUSH2 0x17BB JUMPI PUSH1 0x40 MLOAD PUSH3 0x461BCD PUSH1 0xE5 SHL DUP2 MSTORE PUSH1 0x20 PUSH1 0x4 DUP3 ADD MSTORE PUSH1 0xD PUSH1 0x24 DUP3 ADD MSTORE PUSH13 0x14185E5BDD5D0819985A5B1959 PUSH1 0x9A SHL PUSH1 0x44 DUP3 ADD MSTORE PUSH1 0x64 ADD PUSH2 0x668 JUMP JUMPDEST PUSH1 0x40 MLOAD DUP2 DUP2 MSTORE CALLER SWAP1 PUSH32 0xEC68461F5D4CC45C89E914CB8826A966C73DD35E5F97815ECE0A01FFA4A025A6 SWAP1 PUSH1 0x20 ADD PUSH1 0x40 MLOAD DUP1 SWAP2 SUB SWAP1 LOG2 POP POP POP POP PUSH2 0xEC1 PUSH1 0x1 PUSH1 0x5 SSTORE JUMP JUMPDEST PUSH2 0x1806 PUSH2 0x1947 JUMP JUMPDEST PUSH1 0x1 PUSH1 0x1 PUSH1 0xA0 SHL SUB DUP2 AND PUSH2 0x182F JUMPI PUSH1 0x40 MLOAD PUSH4 0x1E4FBDF7 PUSH1 0xE0 SHL DUP2 MSTORE PUSH0 PUSH1 0x4 DUP3 ADD MSTORE PUSH1 0x24 ADD PUSH2 0x668 JUMP JUMPDEST PUSH2 0xE93 DUP2 PUSH2 0x1974 JUMP JUMPDEST PUSH2 0x1845 DUP4 DUP4 DUP4 PUSH1 0x1 PUSH2 0x19C5 JUMP JUMPDEST POP POP POP JUMP JUMPDEST PUSH1 0x2 PUSH1 0x5 SLOAD SUB PUSH2 0x186D JUMPI PUSH1 0x40 MLOAD PUSH4 0x3EE5AEB5 PUSH1 0xE0 SHL DUP2 MSTORE PUSH1 0x4 ADD PUSH1 0x40 MLOAD DUP1 SWAP2 SUB SWAP1 REVERT JUMPDEST PUSH1 0x2 PUSH1 0x5 SSTORE JUMP JUMPDEST PUSH1 0x1 PUSH1 0x1 PUSH1 0xA0 SHL SUB DUP4 DUP2 AND PUSH0 SWAP1 DUP2 MSTORE PUSH1 0x1 PUSH1 0x20 SWAP1 DUP2 MSTORE PUSH1 0x40 DUP1 DUP4 KECCAK256 SWAP4 DUP7 AND DUP4 MSTORE SWAP3 SWAP1 MSTORE KECCAK256 SLOAD PUSH0 NOT DUP2 LT ISZERO PUSH2 0xA30 JUMPI DUP2 DUP2 LT ISZERO PUSH2 0x18DC JUMPI PUSH1 0x40 MLOAD PUSH4 0x7DC7A0D9 PUSH1 0xE1 SHL DUP2 MSTORE PUSH1 0x1 PUSH1 0x1 PUSH1 0xA0 SHL SUB DUP5 AND PUSH1 0x4 DUP3 ADD MSTORE PUSH1 0x24 DUP2 ADD DUP3 SWAP1 MSTORE PUSH1 0x44 DUP2 ADD DUP4 SWAP1 MSTORE PUSH1 0x64 ADD PUSH2 0x668 JUMP JUMPDEST PUSH2 0xA30 DUP5 DUP5 DUP5 DUP5 SUB PUSH0 PUSH2 0x19C5 JUMP JUMPDEST PUSH1 0x1 PUSH1 0x1 PUSH1 0xA0 SHL SUB DUP4 AND PUSH2 0x1913 JUMPI PUSH1 0x40 MLOAD PUSH4 0x4B637E8F PUSH1 0xE1 SHL DUP2 MSTORE PUSH0 PUSH1 0x4 DUP3 ADD MSTORE PUSH1 0x24 ADD PUSH2 0x668 JUMP JUMPDEST PUSH1 0x1 PUSH1 0x1 PUSH1 0xA0 SHL SUB DUP3 AND PUSH2 0x193C JUMPI PUSH1 0x40 MLOAD PUSH4 0xEC442F05 PUSH1 0xE0 SHL DUP2 MSTORE PUSH0 PUSH1 0x4 DUP3 ADD MSTORE PUSH1 0x24 ADD PUSH2 0x668 JUMP JUMPDEST PUSH2 0x1845 DUP4 DUP4 DUP4 PUSH2 0x1A89 JUMP JUMPDEST PUSH1 0x6 SLOAD PUSH1 0x1 PUSH1 0x1 PUSH1 0xA0 SHL SUB AND CALLER EQ PUSH2 0xEC1 JUMPI PUSH1 0x40 MLOAD PUSH4 0x118CDAA7 PUSH1 0xE0 SHL DUP2 MSTORE CALLER PUSH1 0x4 DUP3 ADD MSTORE PUSH1 0x24 ADD PUSH2 0x668 JUMP JUMPDEST PUSH1 0x6 DUP1 SLOAD PUSH1 0x1 PUSH1 0x1 PUSH1 0xA0 SHL SUB DUP4 DUP2 AND PUSH1 0x1 PUSH1 0x1 PUSH1 0xA0 SHL SUB NOT DUP4 AND DUP2 OR SWAP1 SWAP4 SSTORE PUSH1 0x40 MLOAD SWAP2 AND SWAP2 SWAP1 DUP3 SWAP1 PUSH32 0x8BE0079C531659141344CD1FD0A4F28419497F9722A3DAAFE3B4186F6B6457E0 SWAP1 PUSH0 SWAP1 LOG3 POP POP JUMP JUMPDEST PUSH1 0x1 PUSH1 0x1 PUSH1 0xA0 SHL SUB DUP5 AND PUSH2 0x19EE JUMPI PUSH1 0x40 MLOAD PUSH4 0xE602DF05 PUSH1 0xE0 SHL DUP2 MSTORE PUSH0 PUSH1 0x4 DUP3 ADD MSTORE PUSH1 0x24 ADD PUSH2 0x668 JUMP JUMPDEST PUSH1 0x1 PUSH1 0x1 PUSH1 0xA0 SHL SUB DUP4 AND PUSH2 0x1A17 JUMPI PUSH1 0x40 MLOAD PUSH4 0x4A1406B1 PUSH1 0xE1 SHL DUP2 MSTORE PUSH0 PUSH1 0x4 DUP3 ADD MSTORE PUSH1 0x24 ADD PUSH2 0x668 JUMP JUMPDEST PUSH1 0x1 PUSH1 0x1 PUSH1 0xA0 SHL SUB DUP1 DUP6 AND PUSH0 SWAP1 DUP2 MSTORE PUSH1 0x1 PUSH1 0x20 SWAP1 DUP2 MSTORE PUSH1 0x40 DUP1 DUP4 KECCAK256 SWAP4 DUP8 AND DUP4 MSTORE SWAP3 SWAP1 MSTORE KECCAK256 DUP3 SWAP1 SSTORE DUP1 ISZERO PUSH2 0xA30 JUMPI DUP3 PUSH1 0x1 PUSH1 0x1 PUSH1 0xA0 SHL SUB AND DUP5 PUSH1 0x1 PUSH1 0x1 PUSH1 0xA0 SHL SUB AND PUSH32 0x8C5BE1E5EBEC7D5BD14F71427D1E84F3DD0314C0F7B2291E5B200AC8C7C3B925 DUP5 PUSH1 0x40 MLOAD PUSH2 0x1415 SWAP2 DUP2 MSTORE PUSH1 0x20 ADD SWAP1 JUMP JUMPDEST PUSH1 0x1 PUSH1 0x1 PUSH1 0xA0 SHL SUB DUP4 AND PUSH2 0x1AB3 JUMPI DUP1 PUSH1 0x2 PUSH0 DUP3 DUP3 SLOAD PUSH2 0x1AA8 SWAP2 SWAP1 PUSH2 0x20C5 JUMP JUMPDEST SWAP1 SWAP2 SSTORE POP PUSH2 0x1B23 SWAP1 POP JUMP JUMPDEST PUSH1 0x1 PUSH1 0x1 PUSH1 0xA0 SHL SUB DUP4 AND PUSH0 SWAP1 DUP2 MSTORE PUSH1 0x20 DUP2 SWAP1 MSTORE PUSH1 0x40 SWAP1 KECCAK256 SLOAD DUP2 DUP2 LT ISZERO PUSH2 0x1B05 JUMPI PUSH1 0x40 MLOAD PUSH4 0x391434E3 PUSH1 0xE2 SHL DUP2 MSTORE PUSH1 0x1 PUSH1 0x1 PUSH1 0xA0 SHL SUB DUP6 AND PUSH1 0x4 DUP3 ADD MSTORE PUSH1 0x24 DUP2 ADD DUP3 SWAP1 MSTORE PUSH1 0x44 DUP2 ADD DUP4 SWAP1 MSTORE PUSH1 0x64 ADD PUSH2 0x668 JUMP JUMPDEST PUSH1 0x1 PUSH1 0x1 PUSH1 0xA0 SHL SUB DUP5 AND PUSH0 SWAP1 DUP2 MSTORE PUSH1 0x20 DUP2 SWAP1 MSTORE PUSH1 0x40 SWAP1 KECCAK256 SWAP1 DUP3 SWAP1 SUB SWAP1 SSTORE JUMPDEST PUSH1 0x1 PUSH1 0x1 PUSH1 0xA0 SHL SUB DUP3 AND PUSH2 0x1B3F JUMPI PUSH1 0x2 DUP1 SLOAD DUP3 SWAP1 SUB SWAP1 SSTORE PUSH2 0x1B5D JUMP JUMPDEST PUSH1 0x1 PUSH1 0x1 PUSH1 0xA0 SHL SUB DUP3 AND PUSH0 SWAP1 DUP2 MSTORE PUSH1 0x20 DUP2 SWAP1 MSTORE PUSH1 0x40 SWAP1 KECCAK256 DUP1 SLOAD DUP3 ADD SWAP1 SSTORE JUMPDEST DUP2 PUSH1 0x1 PUSH1 0x1 PUSH1 0xA0 SHL SUB AND DUP4 PUSH1 0x1 PUSH1 0x1 PUSH1 0xA0 SHL SUB AND PUSH32 0xDDF252AD1BE2C89B69C2B068FC378DAA952BA7F163C4A11628F55A4DF523B3EF DUP4 PUSH1 0x40 MLOAD PUSH2 0xAD6 SWAP2 DUP2 MSTORE PUSH1 0x20 ADD SWAP1 JUMP JUMPDEST PUSH0 PUSH1 0x20 DUP3 DUP5 SUB SLT ISZERO PUSH2 0x1BB2 JUMPI PUSH0 DUP1 REVERT JUMPDEST POP CALLDATALOAD SWAP2 SWAP1 POP JUMP JUMPDEST PUSH0 DUP2 MLOAD DUP1 DUP5 MSTORE PUSH0 JUMPDEST DUP2 DUP2 LT ISZERO PUSH2 0x1BDD JUMPI PUSH1 0x20 DUP2 DUP6 ADD DUP2 ADD MLOAD DUP7 DUP4 ADD DUP3 ADD MSTORE ADD PUSH2 0x1BC1 JUMP JUMPDEST POP PUSH0 PUSH1 0x20 DUP3 DUP7 ADD ADD MSTORE PUSH1 0x20 PUSH1 0x1F NOT PUSH1 0x1F DUP4 ADD AND DUP6 ADD ADD SWAP2 POP POP SWAP3 SWAP2 POP POP JUMP JUMPDEST PUSH1 0xA0 DUP2 MSTORE PUSH0 PUSH2 0x1C0E PUSH1 0xA0 DUP4 ADD DUP9 PUSH2 0x1BB9 JUMP JUMPDEST SWAP1 POP DUP6 PUSH1 0x20 DUP4 ADD MSTORE DUP5 PUSH1 0x40 DUP4 ADD MSTORE DUP4 PUSH1 0x60 DUP4 ADD MSTORE DUP3 ISZERO ISZERO PUSH1 0x80 DUP4 ADD MSTORE SWAP7 SWAP6 POP POP POP POP POP POP JUMP JUMPDEST PUSH1 0x20 DUP2 MSTORE PUSH0 PUSH2 0x1C46 PUSH1 0x20 DUP4 ADD DUP5 PUSH2 0x1BB9 JUMP JUMPDEST SWAP4 SWAP3 POP POP POP JUMP JUMPDEST DUP1 CALLDATALOAD PUSH1 0x1 PUSH1 0x1 PUSH1 0xA0 SHL SUB DUP2 AND DUP2 EQ PUSH2 0x1C63 JUMPI PUSH0 DUP1 REVERT JUMPDEST SWAP2 SWAP1 POP JUMP JUMPDEST PUSH0 DUP1 PUSH1 0x40 DUP4 DUP6 SUB SLT ISZERO PUSH2 0x1C79 JUMPI PUSH0 DUP1 REVERT JUMPDEST PUSH2 0x1C82 DUP4 PUSH2 0x1C4D JUMP JUMPDEST SWAP5 PUSH1 0x20 SWAP4 SWAP1 SWAP4 ADD CALLDATALOAD SWAP4 POP POP POP JUMP JUMPDEST PUSH0 DUP1 PUSH0 DUP1 PUSH1 0x80 DUP6 DUP8 SUB SLT ISZERO PUSH2 0x1CA3 JUMPI PUSH0 DUP1 REVERT JUMPDEST POP POP DUP3 CALLDATALOAD SWAP5 PUSH1 0x20 DUP5 ADD CALLDATALOAD SWAP5 POP PUSH1 0x40 DUP5 ADD CALLDATALOAD SWAP4 PUSH1 0x60 ADD CALLDATALOAD SWAP3 POP SWAP1 POP JUMP JUMPDEST PUSH0 DUP1 PUSH0 PUSH1 0x60 DUP5 DUP7 SUB SLT ISZERO PUSH2 0x1CD1 JUMPI PUSH0 DUP1 REVERT JUMPDEST PUSH2 0x1CDA DUP5 PUSH2 0x1C4D JUMP JUMPDEST SWAP3 POP PUSH2 0x1CE8 PUSH1 0x20 DUP6 ADD PUSH2 0x1C4D JUMP JUMPDEST SWAP2 POP PUSH1 0x40 DUP5 ADD CALLDATALOAD SWAP1 POP SWAP3 POP SWAP3 POP SWAP3 JUMP JUMPDEST PUSH4 0x4E487B71 PUSH1 0xE0 SHL PUSH0 MSTORE PUSH1 0x41 PUSH1 0x4 MSTORE PUSH1 0x24 PUSH0 REVERT JUMPDEST PUSH0 DUP3 PUSH1 0x1F DUP4 ADD SLT PUSH2 0x1D1B JUMPI PUSH0 DUP1 REVERT JUMPDEST DUP2 CALLDATALOAD PUSH8 0xFFFFFFFFFFFFFFFF DUP1 DUP3 GT ISZERO PUSH2 0x1D36 JUMPI PUSH2 0x1D36 PUSH2 0x1CF8 JUMP JUMPDEST PUSH1 0x40 MLOAD PUSH1 0x1F DUP4 ADD PUSH1 0x1F NOT SWAP1 DUP2 AND PUSH1 0x3F ADD AND DUP2 ADD SWAP1 DUP3 DUP3 GT DUP2 DUP4 LT OR ISZERO PUSH2 0x1D5E JUMPI PUSH2 0x1D5E PUSH2 0x1CF8 JUMP JUMPDEST DUP2 PUSH1 0x40 MSTORE DUP4 DUP2 MSTORE DUP7 PUSH1 0x20 DUP6 DUP9 ADD ADD GT ISZERO PUSH2 0x1D76 JUMPI PUSH0 DUP1 REVERT JUMPDEST DUP4 PUSH1 0x20 DUP8 ADD PUSH1 0x20 DUP4 ADD CALLDATACOPY PUSH0 PUSH1 0x20 DUP6 DUP4 ADD ADD MSTORE DUP1 SWAP5 POP POP POP POP POP SWAP3 SWAP2 POP POP JUMP JUMPDEST PUSH0 DUP1 PUSH1 0x40 DUP4 DUP6 SUB SLT ISZERO PUSH2 0x1DA6 JUMPI PUSH0 DUP1 REVERT JUMPDEST DUP3 CALLDATALOAD SWAP2 POP PUSH1 0x20 DUP4 ADD CALLDATALOAD PUSH8 0xFFFFFFFFFFFFFFFF DUP2 GT ISZERO PUSH2 0x1DC3 JUMPI PUSH0 DUP1 REVERT JUMPDEST PUSH2 0x1DCF DUP6 DUP3 DUP7 ADD PUSH2 0x1D0C JUMP JUMPDEST SWAP2 POP POP SWAP3 POP SWAP3 SWAP1 POP JUMP JUMPDEST PUSH0 PUSH1 0x20 DUP3 DUP5 SUB SLT ISZERO PUSH2 0x1DE9 JUMPI PUSH0 DUP1 REVERT JUMPDEST DUP2 CALLDATALOAD PUSH8 0xFFFFFFFFFFFFFFFF DUP2 GT ISZERO PUSH2 0x1DFF JUMPI PUSH0 DUP1 REVERT JUMPDEST PUSH2 0x1E0B DUP5 DUP3 DUP6 ADD PUSH2 0x1D0C JUMP JUMPDEST SWAP5 SWAP4 POP POP POP POP JUMP JUMPDEST PUSH0 PUSH1 0x20 DUP3 DUP5 SUB SLT ISZERO PUSH2 0x1E23 JUMPI PUSH0 DUP1 REVERT JUMPDEST PUSH2 0x1C46 DUP3 PUSH2 0x1C4D JUMP JUMPDEST PUSH0 PUSH2 0x120 PUSH1 0x1 DUP1 PUSH1 0xA0 SHL SUB DUP13 AND DUP4 MSTORE DUP11 PUSH1 0x20 DUP5 ADD MSTORE DUP10 PUSH1 0x40 DUP5 ADD MSTORE DUP9 PUSH1 0x60 DUP5 ADD MSTORE DUP8 ISZERO ISZERO PUSH1 0x80 DUP5 ADD MSTORE DUP7 ISZERO ISZERO PUSH1 0xA0 DUP5 ADD MSTORE DUP1 PUSH1 0xC0 DUP5 ADD MSTORE PUSH2 0x1E6F DUP2 DUP5 ADD DUP8 PUSH2 0x1BB9 JUMP JUMPDEST SWAP1 POP DUP3 DUP2 SUB PUSH1 0xE0 DUP5 ADD MSTORE PUSH2 0x1E83 DUP2 DUP7 PUSH2 0x1BB9 JUMP JUMPDEST SWAP1 POP DUP3 DUP2 SUB PUSH2 0x100 DUP5 ADD MSTORE PUSH2 0x1E98 DUP2 DUP6 PUSH2 0x1BB9 JUMP JUMPDEST SWAP13 SWAP12 POP POP POP POP POP POP POP POP POP POP POP POP JUMP JUMPDEST DUP1 ISZERO ISZERO DUP2 EQ PUSH2 0xE93 JUMPI PUSH0 DUP1 REVERT JUMPDEST PUSH0 DUP1 PUSH1 0x40 DUP4 DUP6 SUB SLT ISZERO PUSH2 0x1EC6 JUMPI PUSH0 DUP1 REVERT JUMPDEST DUP3 CALLDATALOAD SWAP2 POP PUSH1 0x20 DUP4 ADD CALLDATALOAD PUSH2 0x1ED8 DUP2 PUSH2 0x1EA8 JUMP JUMPDEST DUP1 SWAP2 POP POP SWAP3 POP SWAP3 SWAP1 POP JUMP JUMPDEST PUSH0 DUP1 PUSH1 0x40 DUP4 DUP6 SUB SLT ISZERO PUSH2 0x1EF4 JUMPI PUSH0 DUP1 REVERT JUMPDEST PUSH2 0x1EFD DUP4 PUSH2 0x1C4D JUMP JUMPDEST SWAP2 POP PUSH2 0x1F0B PUSH1 0x20 DUP5 ADD PUSH2 0x1C4D JUMP JUMPDEST SWAP1 POP SWAP3 POP SWAP3 SWAP1 POP JUMP JUMPDEST PUSH1 0x1 DUP2 DUP2 SHR SWAP1 DUP3 AND DUP1 PUSH2 0x1F28 JUMPI PUSH1 0x7F DUP3 AND SWAP2 POP JUMPDEST PUSH1 0x20 DUP3 LT DUP2 SUB PUSH2 0x1F46 JUMPI PUSH4 0x4E487B71 PUSH1 0xE0 SHL PUSH0 MSTORE PUSH1 0x22 PUSH1 0x4 MSTORE PUSH1 0x24 PUSH0 REVERT JUMPDEST POP SWAP2 SWAP1 POP JUMP JUMPDEST PUSH1 0x20 DUP1 DUP3 MSTORE PUSH1 0xF SWAP1 DUP3 ADD MSTORE PUSH15 0x4D757374206F776E20736861726573 PUSH1 0x88 SHL PUSH1 0x40 DUP3 ADD MSTORE PUSH1 0x60 ADD SWAP1 JUMP JUMPDEST PUSH0 PUSH1 0x20 DUP3 DUP5 SUB SLT ISZERO PUSH2 0x1F85 JUMPI PUSH0 DUP1 REVERT JUMPDEST DUP2 MLOAD PUSH2 0x1C46 DUP2 PUSH2 0x1EA8 JUMP JUMPDEST PUSH1 0x1F DUP3 GT ISZERO PUSH2 0x1845 JUMPI PUSH0 DUP2 DUP2 MSTORE PUSH1 0x20 DUP2 KECCAK256 PUSH1 0x1F DUP6 ADD PUSH1 0x5 SHR DUP2 ADD PUSH1 0x20 DUP7 LT ISZERO PUSH2 0x1FB6 JUMPI POP DUP1 JUMPDEST PUSH1 0x1F DUP6 ADD PUSH1 0x5 SHR DUP3 ADD SWAP2 POP JUMPDEST DUP2 DUP2 LT ISZERO PUSH2 0x1FD5 JUMPI DUP3 DUP2 SSTORE PUSH1 0x1 ADD PUSH2 0x1FC2 JUMP JUMPDEST POP POP POP POP POP POP JUMP JUMPDEST DUP2 MLOAD PUSH8 0xFFFFFFFFFFFFFFFF DUP2 GT ISZERO PUSH2 0x1FF7 JUMPI PUSH2 0x1FF7 PUSH2 0x1CF8 JUMP JUMPDEST PUSH2 0x200B DUP2 PUSH2 0x2005 DUP5 SLOAD PUSH2 0x1F14 JUMP JUMPDEST DUP5 PUSH2 0x1F90 JUMP JUMPDEST PUSH1 0x20 DUP1 PUSH1 0x1F DUP4 GT PUSH1 0x1 DUP2 EQ PUSH2 0x203E JUMPI PUSH0 DUP5 ISZERO PUSH2 0x2027 JUMPI POP DUP6 DUP4 ADD MLOAD JUMPDEST PUSH0 NOT PUSH1 0x3 DUP7 SWAP1 SHL SHR NOT AND PUSH1 0x1 DUP6 SWAP1 SHL OR DUP6 SSTORE PUSH2 0x1FD5 JUMP JUMPDEST PUSH0 DUP6 DUP2 MSTORE PUSH1 0x20 DUP2 KECCAK256 PUSH1 0x1F NOT DUP7 AND SWAP2 JUMPDEST DUP3 DUP2 LT ISZERO PUSH2 0x206C JUMPI DUP9 DUP7 ADD MLOAD DUP3 SSTORE SWAP5 DUP5 ADD SWAP5 PUSH1 0x1 SWAP1 SWAP2 ADD SWAP1 DUP5 ADD PUSH2 0x204D JUMP JUMPDEST POP DUP6 DUP3 LT ISZERO PUSH2 0x2089 JUMPI DUP8 DUP6 ADD MLOAD PUSH0 NOT PUSH1 0x3 DUP9 SWAP1 SHL PUSH1 0xF8 AND SHR NOT AND DUP2 SSTORE JUMPDEST POP POP POP POP POP PUSH1 0x1 SWAP1 DUP2 SHL ADD SWAP1 SSTORE POP JUMP JUMPDEST PUSH4 0x4E487B71 PUSH1 0xE0 SHL PUSH0 MSTORE PUSH1 0x11 PUSH1 0x4 MSTORE PUSH1 0x24 PUSH0 REVERT JUMPDEST PUSH0 PUSH1 0x1 DUP3 ADD PUSH2 0x20BE JUMPI PUSH2 0x20BE PUSH2 0x2099 JUMP JUMPDEST POP PUSH1 0x1 ADD SWAP1 JUMP JUMPDEST DUP1 DUP3 ADD DUP1 DUP3 GT ISZERO PUSH2 0x612 JUMPI PUSH2 0x612 PUSH2 0x2099 JUMP JUMPDEST DUP1 DUP3 MUL DUP2 ISZERO DUP3 DUP3 DIV DUP5 EQ OR PUSH2 0x612 JUMPI PUSH2 0x612 PUSH2 0x2099 JUMP JUMPDEST PUSH0 DUP3 PUSH2 0x2109 JUMPI PUSH4 0x4E487B71 PUSH1 0xE0 SHL PUSH0 MSTORE PUSH1 0x12 PUSH1 0x4 MSTORE PUSH1 0x24 PUSH0 REVERT JUMPDEST POP DIV SWAP1 JUMP JUMPDEST DUP2 DUP2 SUB DUP2 DUP2 GT ISZERO PUSH2 0x612 JUMPI PUSH2 0x612 PUSH2 0x2099 JUMP INVALID LOG2 PUSH5 0x6970667358 0x22 SLT KECCAK256 NUMBER 0xC5 XOR 0xD 0xB0 0xC9 0xD9 SWAP2 0xEB 0xC4 SIGNEXTEND 0xE4 DUP7 0xB4 SELFBALANCE 0x2D 0xC0 DUP12 0xF8 NOT 0xF9 0x4A 0xBC DUP6 RETURNDATACOPY PUSH23 0x9D2E2A57717E64736F6C63430008140033000000000000 "},"methodIdentifiers":{"allowance(address,address)":"dd62ed3e","approve(address,uint256)":"095ea7b3","balanceOf(address)":"70a08231","bookings(bytes32)":"bbacc187","claimPayout()":"e88499a9","claimablePayouts(address)":"e3125ebb","claimedRevenue()":"555152cd","confirmCheckIn(bytes32,string)":"3895716e","confirmCheckOut(bytes32,string)":"8a08bb29","createBooking(bytes32,uint256,uint256,uint256)":"2225c351","createProposal(string)":"49c2a1a6","decimals()":"313ce567","distributeRevenue(uint256)":"59fde1e0","executeProposal(uint256)":"0d61b519","getClaimableAmount(address)":"e12f3a61","maintenanceFund()":"2bb6ccb2","maintenancePct()":"56cb829c","metadataCID()":"58871c46","name()":"06fdde03","owner()":"8da5cb5b","proposalCount()":"da35c664","proposals(uint256)":"013cf08b","purchaseShares(uint256)":"df48981a","renounceOwnership()":"715018a6","reportDamage(bytes32,string)":"29349148","sharePrice()":"87269729","symbol()":"95d89b41","totalRevenue()":"bf2d9e0b","totalSupply()":"18160ddd","transfer(address,uint256)":"a9059cbb","transferFrom(address,address,uint256)":"23b872dd","transferOwnership(address)":"f2fde38b","usdc()":"3e413bee","vote(uint256,bool)":"c9d27afe"}}}}}