{
  "_format": "hh3-artifact-1",
  "contractName": "PoolFactory",
  "sourceName": "contracts/PoolFactory.sol",
  "abi": [
    {
      "inputs": [
        {
          "internalType": "address",
          "name": "_usdc",
          "type": "address"
        }
      ],
      "stateMutability": "nonpayable",
      "type": "constructor"
    },
    {
      "anonymous": false,
      "inputs": [
        {
          "indexed": true,
          "internalType": "address",
          "name": "poolAddress",
          "type": "address"
        },
        {
          "indexed": true,
          "internalType": "address",
          "name": "creator",
          "type": "address"
        },
        {
          "indexed": false,
          "internalType": "string",
          "name": "name",
          "type": "string"
        },
        {
          "indexed": false,
          "internalType": "uint256",
          "name": "totalShares",
          "type": "uint256"
        },
        {
          "indexed": false,
          "internalType": "uint256",
          "name": "sharePrice",
          "type": "uint256"
        }
      ],
      "name": "PoolCreated",
      "type": "event"
    },
    {
      "inputs": [
        {
          "internalType": "uint256",
          "name": "",
          "type": "uint256"
        }
      ],
      "name": "allPools",
      "outputs": [
        {
          "internalType": "address",
          "name": "",
          "type": "address"
        }
      ],
      "stateMutability": "view",
      "type": "function"
    },
    {
      "inputs": [
        {
          "internalType": "string",
          "name": "name",
          "type": "string"
        },
        {
          "internalType": "string",
          "name": "symbol",
          "type": "string"
        },
        {
          "internalType": "string",
          "name": "metadataCID",
          "type": "string"
        },
        {
          "internalType": "uint256",
          "name": "totalShares",
          "type": "uint256"
        },
        {
          "internalType": "uint256",
          "name": "sharePrice",
          "type": "uint256"
        },
        {
          "internalType": "uint256",
          "name": "maintenancePct",
          "type": "uint256"
        }
      ],
      "name": "createPool",
      "outputs": [
        {
          "internalType": "address",
          "name": "",
          "type": "address"
        }
      ],
      "stateMutability": "nonpayable",
      "type": "function"
    },
    {
      "inputs": [],
      "name": "getAllPools",
      "outputs": [
        {
          "internalType": "address[]",
          "name": "",
          "type": "address[]"
        }
      ],
      "stateMutability": "view",
      "type": "function"
    },
    {
      "inputs": [],
      "name": "getPoolCount",
      "outputs": [
        {
          "internalType": "uint256",
          "name": "",
          "type": "uint256"
        }
      ],
      "stateMutability": "view",
      "type": "function"
    },
    {
      "inputs": [
        {
          "internalType": "address",
          "name": "creator",
          "type": "address"
        }
      ],
      "name": "getPoolsByCreator",
      "outputs": [
        {
          "internalType": "address[]",
          "name": "",
          "type": "address[]"
        }
      ],
      "stateMutability": "view",
      "type": "function"
    },
    {
      "inputs": [
        {
          "internalType": "address",
          "name": "",
          "type": "address"
        },
        {
          "internalType": "uint256",
          "name": "",
          "type": "uint256"
        }
      ],
      "name": "poolsByCreator",
      "outputs": [
        {
          "internalType": "address",
          "name": "",
          "type": "address"
        }
      ],
      "stateMutability": "view",
      "type": "function"
    },
    {
      "inputs": [],
      "name": "usdc",
      "outputs": [
        {
          "internalType": "address",
          "name": "",
          "type": "address"
        }
      ],
      "stateMutability": "view",
      "type": "function"
    }
  ],
  "bytecode": "0x60a060405234801561000f575f80fd5b50604051612ec2380380612ec283398101604081905261002e9161003f565b6001600160a01b031660805261006c565b5f6020828403121561004f575f80fd5b81516001600160a01b0381168114610065575f80fd5b9392505050565b608051612e3861008a5f395f8181608e01526101850152612e385ff3fe608060405234801562000010575f80fd5b506004361062000084575f3560e01c80638eec5d70116200005f5780638eec5d7014620000fb578063c84728ef146200010c578063d88ff1f41462000132578063fcbf570b146200013c575f80fd5b80633e413bee146200008857806341d1de9714620000cd57806380212dbc14620000e4575b5f80fd5b620000b07f000000000000000000000000000000000000000000000000000000000000000081565b6040516001600160a01b0390911681526020015b60405180910390f35b620000b0620000de366004620003bb565b62000153565b620000b0620000f536600462000478565b6200017b565b5f54604051908152602001620000c4565b620001236200011d3660046200053b565b620002a2565b604051620000c491906200055e565b6200012362000317565b620000b06200014d366004620005ac565b62000378565b5f818154811062000162575f80fd5b5f918252602090912001546001600160a01b0316905081565b5f803388888888887f000000000000000000000000000000000000000000000000000000000000000089604051620001b390620003ad565b620001c69897969594939291906200061c565b604051809103905ff080158015620001e0573d5f803e3d5ffd5b505f8054600181810183557f290decd9548b62a8d60345a988386fc84ba6bc95484008f6362f93160ef3e56390910180546001600160a01b0385166001600160a01b0319918216811790925533808552602084815260408087208054968701815587529520909301805490911682179055915192935083929091907f30578cd4b484d762140b5b2ae791be98b66a4edc506f87d89c8edae657229622906200028e908d908b908b9062000696565b60405180910390a398975050505050505050565b6001600160a01b0381165f908152600160209081526040918290208054835181840281018401909452808452606093928301828280156200030b57602002820191905f5260205f20905b81546001600160a01b03168152600190910190602001808311620002ec575b50505050509050919050565b60605f8054806020026020016040519081016040528092919081815260200182805480156200036e57602002820191905f5260205f20905b81546001600160a01b031681526001909101906020018083116200034f575b5050505050905090565b6001602052815f5260405f20818154811062000392575f80fd5b5f918252602090912001546001600160a01b03169150829050565b61274680620006bd83390190565b5f60208284031215620003cc575f80fd5b5035919050565b634e487b7160e01b5f52604160045260245ffd5b5f82601f830112620003f7575f80fd5b813567ffffffffffffffff80821115620004155762000415620003d3565b604051601f8301601f19908116603f01168101908282118183101715620004405762000440620003d3565b8160405283815286602085880101111562000459575f80fd5b836020870160208301375f602085830101528094505050505092915050565b5f805f805f8060c087890312156200048e575f80fd5b863567ffffffffffffffff80821115620004a6575f80fd5b620004b48a838b01620003e7565b97506020890135915080821115620004ca575f80fd5b620004d88a838b01620003e7565b96506040890135915080821115620004ee575f80fd5b50620004fd89828a01620003e7565b945050606087013592506080870135915060a087013590509295509295509295565b80356001600160a01b038116811462000536575f80fd5b919050565b5f602082840312156200054c575f80fd5b62000557826200051f565b9392505050565b602080825282518282018190525f9190848201906040850190845b81811015620005a05783516001600160a01b03168352928401929184019160010162000579565b50909695505050505050565b5f8060408385031215620005be575f80fd5b620005c9836200051f565b946020939093013593505050565b5f81518084525f5b81811015620005fd57602081850181015186830182015201620005df565b505f602082860101526020601f19601f83011685010191505092915050565b6001600160a01b038981168252610100602083018190525f91620006438483018c620005d7565b9150838203604085015262000659828b620005d7565b915083820360608501526200066f828a620005d7565b608085019890985260a084019690965250509190921660c082015260e00152949350505050565b606081525f620006aa6060830186620005d7565b6020830194909452506040015291905056fe60a060405234801562000010575f80fd5b50604051620027463803806200274683398101604081905262000033916200036c565b8787876003620000448382620004c5565b506004620000538282620004c5565b50506001600555506001600160a01b0381166200008a57604051631e4fbdf760e01b81525f60048201526024015b60405180910390fd5b6200009581620000d6565b506007620000a48682620004c5565b5060088390556001600160a01b0382166080526009819055620000c8888562000127565b5050505050505050620005b3565b600680546001600160a01b038381166001600160a01b0319831681179093556040519116919082907f8be0079c531659141344cd1fd0a4f28419497f9722a3daafe3b4186f6b6457e0905f90a35050565b6001600160a01b038216620001525760405163ec442f0560e01b81525f600482015260240162000081565b6200015f5f838362000163565b5050565b6001600160a01b03831662000191578060025f8282546200018591906200058d565b90915550620002039050565b6001600160a01b0383165f9081526020819052604090205481811015620001e55760405163391434e360e21b81526001600160a01b0385166004820152602481018290526044810183905260640162000081565b6001600160a01b0384165f9081526020819052604090209082900390555b6001600160a01b03821662000221576002805482900390556200023f565b6001600160a01b0382165f9081526020819052604090208054820190555b816001600160a01b0316836001600160a01b03167fddf252ad1be2c89b69c2b068fc378daa952ba7f163c4a11628f55a4df523b3ef836040516200028591815260200190565b60405180910390a3505050565b80516001600160a01b0381168114620002a9575f80fd5b919050565b634e487b7160e01b5f52604160045260245ffd5b5f82601f830112620002d2575f80fd5b81516001600160401b0380821115620002ef57620002ef620002ae565b604051601f8301601f19908116603f011681019082821181831017156200031a576200031a620002ae565b8160405283815260209250868385880101111562000336575f80fd5b5f91505b838210156200035957858201830151818301840152908201906200033a565b5f93810190920192909252949350505050565b5f805f805f805f80610100898b03121562000385575f80fd5b620003908962000292565b60208a01519098506001600160401b0380821115620003ad575f80fd5b620003bb8c838d01620002c2565b985060408b0151915080821115620003d1575f80fd5b620003df8c838d01620002c2565b975060608b0151915080821115620003f5575f80fd5b50620004048b828c01620002c2565b9550506080890151935060a089015192506200042360c08a0162000292565b915060e089015190509295985092959890939650565b600181811c908216806200044e57607f821691505b6020821081036200046d57634e487b7160e01b5f52602260045260245ffd5b50919050565b601f821115620004c0575f81815260208120601f850160051c810160208610156200049b5750805b601f850160051c820191505b81811015620004bc57828155600101620004a7565b5050505b505050565b81516001600160401b03811115620004e157620004e1620002ae565b620004f981620004f2845462000439565b8462000473565b602080601f8311600181146200052f575f8415620005175750858301515b5f19600386901b1c1916600185901b178555620004bc565b5f85815260208120601f198616915b828110156200055f578886015182559484019460019091019084016200053e565b50858210156200057d57878501515f19600388901b60f8161c191681555b5050505050600190811b01905550565b80820180821115620005ad57634e487b7160e01b5f52601160045260245ffd5b92915050565b608051612157620005ef5f395f81816102f6015281816107ed01528181610d4701528181610faa0152818161145f015261170d01526121575ff3fe608060405234801561000f575f80fd5b50600436106101fd575f3560e01c806370a0823111610114578063bf2d9e0b116100a9578063df48981a11610079578063df48981a14610458578063e12f3a611461046b578063e3125ebb1461047e578063e88499a91461049d578063f2fde38b146104a5575f80fd5b8063bf2d9e0b146103fb578063c9d27afe14610404578063da35c66414610417578063dd62ed3e14610420575f80fd5b80638da5cb5b116100e45780638da5cb5b146103a757806395d89b41146103b8578063a9059cbb146103c0578063bbacc187146103d3575f80fd5b806370a0823114610370578063715018a614610383578063872697291461038b5780638a08bb2914610394575f80fd5b80632bb6ccb21161019557806349c2a1a61161016557806349c2a1a614610330578063555152cd1461034357806356cb829c1461034c57806358871c461461035557806359fde1e01461035d575f80fd5b80632bb6ccb2146102c6578063313ce567146102cf5780633895716e146102de5780633e413bee146102f1575f80fd5b806318160ddd116101d057806318160ddd1461027b5780632225c3511461028d57806323b872dd146102a057806329349148146102b3575f80fd5b8063013cf08b1461020157806306fdde031461022e578063095ea7b3146102435780630d61b51914610266575b5f80fd5b61021461020f366004611ba2565b6104b8565b604051610225959493929190611bfc565b60405180910390f35b61023661056f565b6040516102259190611c34565b610256610251366004611c68565b6105ff565b6040519015158152602001610225565b610279610274366004611ba2565b610618565b005b6002545b604051908152602001610225565b61027961029b366004611c90565b610741565b6102566102ae366004611cbf565b610a36565b6102796102c1366004611d95565b610a59565b61027f600a5481565b60405160128152602001610225565b6102796102ec366004611d95565b610ae3565b6103187f000000000000000000000000000000000000000000000000000000000000000081565b6040516001600160a01b039091168152602001610225565b61027f61033e366004611dd9565b610bde565b61027f600c5481565b61027f60095481565b610236610c89565b61027961036b366004611ba2565b610d15565b61027f61037e366004611e13565b610e96565b610279610eb0565b61027f60085481565b6102796103a2366004611d95565b610ec3565b6006546001600160a01b0316610318565b61023661108f565b6102566103ce366004611c68565b61109e565b6103e66103e1366004611ba2565b6110ab565b60405161022599989796959493929190611e2c565b61027f600b5481565b610279610412366004611eb5565b611298565b61027f600f5481565b61027f61042e366004611ee3565b6001600160a01b039182165f90815260016020908152604080832093909416825291909152205490565b610279610466366004611ba2565b611423565b61027f610479366004611e13565b611570565b61027f61048c366004611e13565b60106020525f908152604090205481565b6102796115e0565b6102796104b3366004611e13565b6117fe565b600e6020525f90815260409020805481906104d290611f14565b80601f01602080910402602001604051908101604052809291908181526020018280546104fe90611f14565b80156105495780601f1061052057610100808354040283529160200191610549565b820191905f5260205f20905b81548152906001019060200180831161052c57829003601f168201915b505050506001830154600284015460038501546004909501549394919390925060ff1685565b60606003805461057e90611f14565b80601f01602080910402602001604051908101604052809291908181526020018280546105aa90611f14565b80156105f55780601f106105cc576101008083540402835291602001916105f5565b820191905f5260205f20905b8154815290600101906020018083116105d857829003601f168201915b5050505050905090565b5f3361060c818585611838565b60019150505b92915050565b5f818152600e6020526040902060038101544210156106715760405162461bcd60e51b815260206004820152601060248201526f159bdd1a5b99c81b9bdd08195b99195960821b60448201526064015b60405180910390fd5b600481015460ff16156106b95760405162461bcd60e51b815260206004820152601060248201526f105b1c9958591e48195e1958dd5d195960821b6044820152606401610668565b80600201548160010154116107045760405162461bcd60e51b8152602060048201526011602482015270141c9bdc1bdcd85b081c995a9958dd1959607a1b6044820152606401610668565b60048101805460ff1916600117905560405182907f712ae1383f79ac853f8d882153778e0260ef8f03b504e2866e0593e04d2b291f905f90a25050565b61074961184a565b5f848152600d60205260409020546001600160a01b03161561079e5760405162461bcd60e51b815260206004820152600e60248201526d426f6f6b696e672065786973747360901b6044820152606401610668565b5f6107a833610e96565b116107c55760405162461bcd60e51b815260040161066890611f4c565b801561089c576040516323b872dd60e01b8152336004820152306024820152604481018290527f00000000000000000000000000000000000000000000000000000000000000006001600160a01b0316906323b872dd906064016020604051808303815f875af115801561083b573d5f803e3d5ffd5b505050506040513d601f19601f8201168201806040525081019061085f9190611f75565b61089c5760405162461bcd60e51b815260206004820152600e60248201526d11195c1bdcda5d0819985a5b195960921b6044820152606401610668565b60408051610120810182523381526020808201868152828401868152606084018681525f6080860181815260a0870182815288518088018a5283815260c0890190815289518089018b5284815260e08a015289518089018b52848152610100808b01919091528e8552600d90985298909220875181546001600160a01b0319166001600160a01b039091161781559451600186015592516002850155905160038401559051600483018054925161ffff1990931691151561ff00191691909117911515909302179091559151909190600582019061097a9082611fdd565b5060e0820151600682019061098f9082611fdd565b5061010082015160078201906109a59082611fdd565b5050604080518581526020810185905233925086917f9ca04ec3f47e447405be46c9f47c0ff120c4fb91e497488d3423aa773c6f2389910160405180910390a38015610a2657837f619bf0ac7a0c810932ba93ed5253879cfb7e9e28e88ee8113c3c739b9fb55b3482604051610a1d91815260200190565b60405180910390a25b610a306001600555565b50505050565b5f33610a43858285611874565b610a4e8585856118ea565b506001949350505050565b5f828152600d6020526040812090610a7033610e96565b11610a8d5760405162461bcd60e51b815260040161066890611f4c565b60078101610a9b8382611fdd565b50336001600160a01b0316837f0516efb158d4000063ea8a498b3bda171aa4c5eb6739bffe81ed8f0742d564ef84604051610ad69190611c34565b60405180910390a3505050565b5f828152600d6020526040902080546001600160a01b03163314610b3d5760405162461bcd60e51b81526020600482015260116024820152702737ba103137b7b5b4b7339037bbb732b960791b6044820152606401610668565b600481015460ff1615610b835760405162461bcd60e51b815260206004820152600e60248201526d416c72656164792061637469766560901b6044820152606401610668565b60048101805460ff1916600117905560058101610ba08382611fdd565b50827fb35a2f9b2ed656104c5312246f0ab185676be2be2b0a0e43098d416ee648e14083604051610bd19190611c34565b60405180910390a2505050565b5f80610be933610e96565b11610c065760405162461bcd60e51b815260040161066890611f4c565b600f80545f9182610c16836120ad565b909155505f818152600e6020526040902090915080610c358582611fdd565b50610c434262093a806120c5565b600382015560405182907f9c770c289ab5bf7e57cb1d23c8ceae993aea46eb64847072fd3d78ca60d3e43290610c7a908790611c34565b60405180910390a25092915050565b60078054610c9690611f14565b80601f0160208091040260200160405190810160405280929190818152602001828054610cc290611f14565b8015610d0d5780601f10610ce457610100808354040283529160200191610d0d565b820191905f5260205f20905b815481529060010190602001808311610cf057829003601f168201915b505050505081565b610d1d611947565b610d2561184a565b6040516323b872dd60e01b8152336004820152306024820152604481018290527f00000000000000000000000000000000000000000000000000000000000000006001600160a01b0316906323b872dd906064016020604051808303815f875af1158015610d95573d5f803e3d5ffd5b505050506040513d601f19601f82011682018060405250810190610db99190611f75565b610df75760405162461bcd60e51b815260206004820152600f60248201526e151c985b9cd9995c8819985a5b1959608a1b6044820152606401610668565b5f61271060095483610e0991906120d8565b610e1391906120ef565b905080600a5f828254610e2691906120c5565b909155505f9050610e37828461210e565b905080600b5f828254610e4a91906120c5565b9091555050604080518281524260208201527f2703ace359e89cb73a330208d4f9b64e82f078a6bebf4e8cc58a549fc64cfd21910160405180910390a15050610e936001600555565b50565b6001600160a01b03165f9081526020819052604090205490565b610eb8611947565b610ec15f611974565b565b5f828152600d6020526040902080546001600160a01b03163314610f1d5760405162461bcd60e51b81526020600482015260116024820152702737ba103137b7b5b4b7339037bbb732b960791b6044820152606401610668565b600481015460ff16610f5e5760405162461bcd60e51b815260206004820152600a6024820152694e6f742061637469766560b01b6044820152606401610668565b60048101805461ffff191661010017905560068101610f7d8382611fdd565b5060038101541561105f57600381015460405163a9059cbb60e01b815233600482015260248101919091527f00000000000000000000000000000000000000000000000000000000000000006001600160a01b03169063a9059cbb906044016020604051808303815f875af1158015610ff8573d5f803e3d5ffd5b505050506040513d601f19601f8201168201806040525081019061101c9190611f75565b6110585760405162461bcd60e51b815260206004820152600d60248201526c1499599d5b990819985a5b1959609a1b6044820152606401610668565b5f60038201555b827fd4b084565278747e30b0582df935125f87310edcf3df8c15cd294975ff09e72583604051610bd19190611c34565b60606004805461057e90611f14565b5f3361060c8185856118ea565b600d6020525f90815260409020805460018201546002830154600384015460048501546005860180546001600160a01b039096169694959394929360ff80841694610100909404169291906110ff90611f14565b80601f016020809104026020016040519081016040528092919081815260200182805461112b90611f14565b80156111765780601f1061114d57610100808354040283529160200191611176565b820191905f5260205f20905b81548152906001019060200180831161115957829003601f168201915b50505050509080600601805461118b90611f14565b80601f01602080910402602001604051908101604052809291908181526020018280546111b790611f14565b80156112025780601f106111d957610100808354040283529160200191611202565b820191905f5260205f20905b8154815290600101906020018083116111e557829003601f168201915b50505050509080600701805461121790611f14565b80601f016020809104026020016040519081016040528092919081815260200182805461124390611f14565b801561128e5780601f106112655761010080835404028352916020019161128e565b820191905f5260205f20905b81548152906001019060200180831161127157829003601f168201915b5050505050905089565b5f828152600e60205260409020600381015442106112e75760405162461bcd60e51b815260206004820152600c60248201526b159bdd1a5b99c8195b99195960a21b6044820152606401610668565b335f90815260058201602052604090205460ff16156113385760405162461bcd60e51b815260206004820152600d60248201526c105b1c9958591e481d9bdd1959609a1b6044820152606401610668565b5f61134233610e96565b90505f81116113855760405162461bcd60e51b815260206004820152600f60248201526e2737903b37ba34b733903837bbb2b960891b6044820152606401610668565b335f9081526005830160205260409020805460ff1916600117905582156113c45780826001015f8282546113b991906120c5565b909155506113dd9050565b80826002015f8282546113d791906120c5565b90915550505b60408051841515815260208101839052339186917f7c2de587c00d75474a0c6c6fa96fd3b45dc974cd4e8a75f712bb84c950dce1b591015b60405180910390a350505050565b61142b61184a565b5f6008548261143a91906120d8565b6040516323b872dd60e01b8152336004820152306024820152604481018290529091507f00000000000000000000000000000000000000000000000000000000000000006001600160a01b0316906323b872dd906064016020604051808303815f875af11580156114ad573d5f803e3d5ffd5b505050506040513d601f19601f820116820180604052508101906114d19190611f75565b61150e5760405162461bcd60e51b815260206004820152600e60248201526d14185e5b595b9d0819985a5b195960921b6044820152606401610668565b61152a6115236006546001600160a01b031690565b33846118ea565b604080518381526020810183905233917f630b54f21d1c5ae41c4633ad96e8c15ce15665365eded6a38476ffa71c8ace6c910160405180910390a250610e936001600555565b5f8061157b83610e96565b9050805f0361158c57505f92915050565b5f61159660025490565b90505f8183600b546115a891906120d8565b6115b291906120ef565b6001600160a01b0386165f908152601060205260409020549091506115d7908261210e565b95945050505050565b6115e861184a565b5f6115f233610e96565b90505f811161162f5760405162461bcd60e51b81526020600482015260096024820152684e6f2073686172657360b81b6044820152606401610668565b5f61163960025490565b90505f8183600b5461164b91906120d8565b61165591906120ef565b335f9081526010602052604081205491925090611672908361210e565b90505f81116116b65760405162461bcd60e51b815260206004820152601060248201526f4e6f7468696e6720746f20636c61696d60801b6044820152606401610668565b335f90815260106020526040812080548392906116d49084906120c5565b9250508190555080600c5f8282546116ec91906120c5565b909155505060405163a9059cbb60e01b8152336004820152602481018290527f00000000000000000000000000000000000000000000000000000000000000006001600160a01b03169063a9059cbb906044016020604051808303815f875af115801561175b573d5f803e3d5ffd5b505050506040513d601f19601f8201168201806040525081019061177f9190611f75565b6117bb5760405162461bcd60e51b815260206004820152600d60248201526c14185e5bdd5d0819985a5b1959609a1b6044820152606401610668565b60405181815233907fec68461f5d4cc45c89e914cb8826a966c73dd35e5f97815ece0a01ffa4a025a69060200160405180910390a250505050610ec16001600555565b611806611947565b6001600160a01b03811661182f57604051631e4fbdf760e01b81525f6004820152602401610668565b610e9381611974565b61184583838360016119c5565b505050565b60026005540361186d57604051633ee5aeb560e01b815260040160405180910390fd5b6002600555565b6001600160a01b038381165f908152600160209081526040808320938616835292905220545f19811015610a3057818110156118dc57604051637dc7a0d960e11b81526001600160a01b03841660048201526024810182905260448101839052606401610668565b610a3084848484035f6119c5565b6001600160a01b03831661191357604051634b637e8f60e11b81525f6004820152602401610668565b6001600160a01b03821661193c5760405163ec442f0560e01b81525f6004820152602401610668565b611845838383611a89565b6006546001600160a01b03163314610ec15760405163118cdaa760e01b8152336004820152602401610668565b600680546001600160a01b038381166001600160a01b0319831681179093556040519116919082907f8be0079c531659141344cd1fd0a4f28419497f9722a3daafe3b4186f6b6457e0905f90a35050565b6001600160a01b0384166119ee5760405163e602df0560e01b81525f6004820152602401610668565b6001600160a01b038316611a1757604051634a1406b160e11b81525f6004820152602401610668565b6001600160a01b038085165f9081526001602090815260408083209387168352929052208290558015610a3057826001600160a01b0316846001600160a01b03167f8c5be1e5ebec7d5bd14f71427d1e84f3dd0314c0f7b2291e5b200ac8c7c3b9258460405161141591815260200190565b6001600160a01b038316611ab3578060025f828254611aa891906120c5565b90915550611b239050565b6001600160a01b0383165f9081526020819052604090205481811015611b055760405163391434e360e21b81526001600160a01b03851660048201526024810182905260448101839052606401610668565b6001600160a01b0384165f9081526020819052604090209082900390555b6001600160a01b038216611b3f57600280548290039055611b5d565b6001600160a01b0382165f9081526020819052604090208054820190555b816001600160a01b0316836001600160a01b03167fddf252ad1be2c89b69c2b068fc378daa952ba7f163c4a11628f55a4df523b3ef83604051610ad691815260200190565b5f60208284031215611bb2575f80fd5b5035919050565b5f81518084525f5b81811015611bdd57602081850181015186830182015201611bc1565b505f602082860101526020601f19601f83011685010191505092915050565b60a081525f611c0e60a0830188611bb9565b905085602083015284604083015283606083015282151560808301529695505050505050565b602081525f611c466020830184611bb9565b9392505050565b80356001600160a01b0381168114611c63575f80fd5b919050565b5f8060408385031215611c79575f80fd5b611c8283611c4d565b946020939093013593505050565b5f805f8060808587031215611ca3575f80fd5b5050823594602084013594506040840135936060013592509050565b5f805f60608486031215611cd1575f80fd5b611cda84611c4d565b9250611ce860208501611c4d565b9150604084013590509250925092565b634e487b7160e01b5f52604160045260245ffd5b5f82601f830112611d1b575f80fd5b813567ffffffffffffffff80821115611d3657611d36611cf8565b604051601f8301601f19908116603f01168101908282118183101715611d5e57611d5e611cf8565b81604052838152866020858801011115611d76575f80fd5b836020870160208301375f602085830101528094505050505092915050565b5f8060408385031215611da6575f80fd5b82359150602083013567ffffffffffffffff811115611dc3575f80fd5b611dcf85828601611d0c565b9150509250929050565b5f60208284031215611de9575f80fd5b813567ffffffffffffffff811115611dff575f80fd5b611e0b84828501611d0c565b949350505050565b5f60208284031215611e23575f80fd5b611c4682611c4d565b5f61012060018060a01b038c1683528a6020840152896040840152886060840152871515608084015286151560a08401528060c0840152611e6f81840187611bb9565b905082810360e0840152611e838186611bb9565b9050828103610100840152611e988185611bb9565b9c9b505050505050505050505050565b8015158114610e93575f80fd5b5f8060408385031215611ec6575f80fd5b823591506020830135611ed881611ea8565b809150509250929050565b5f8060408385031215611ef4575f80fd5b611efd83611c4d565b9150611f0b60208401611c4d565b90509250929050565b600181811c90821680611f2857607f821691505b602082108103611f4657634e487b7160e01b5f52602260045260245ffd5b50919050565b6020808252600f908201526e4d757374206f776e2073686172657360881b604082015260600190565b5f60208284031215611f85575f80fd5b8151611c4681611ea8565b601f821115611845575f81815260208120601f850160051c81016020861015611fb65750805b601f850160051c820191505b81811015611fd557828155600101611fc2565b505050505050565b815167ffffffffffffffff811115611ff757611ff7611cf8565b61200b816120058454611f14565b84611f90565b602080601f83116001811461203e575f84156120275750858301515b5f19600386901b1c1916600185901b178555611fd5565b5f85815260208120601f198616915b8281101561206c5788860151825594840194600190910190840161204d565b508582101561208957878501515f19600388901b60f8161c191681555b5050505050600190811b01905550565b634e487b7160e01b5f52601160045260245ffd5b5f600182016120be576120be612099565b5060010190565b8082018082111561061257610612612099565b808202811582820484141761061257610612612099565b5f8261210957634e487b7160e01b5f52601260045260245ffd5b500490565b818103818111156106125761061261209956fea264697066735822122043c5180db0c9d991ebc40be486b4472dc08bf819f94abc853e769d2e2a57717e64736f6c63430008140033a26469706673582212204a4620e4bdaba3f172e8f3db404b6adfb0ea63cda38089d86f8c2ac27b64e26b64736f6c63430008140033",
  "linkReferences": {},
  "deployedLinkReferences": {},
  "immutableReferences": {
    "1927": [
      {
        "length": 32,
        "start": 142
      },
      {
        "length": 32,
        "start": 389
      }
    ]
  },
  "inputSourceName": "project/contracts/PoolFactory.sol",
  "buildInfoId": "solc-0_8_20-74788a3a93872f077248d54d4b0ddd06e1260fa9"
}